:020000040800F2
:100000000806002001010008B5200008291E00088C
:100010009D1F0008910100083D2800080000000015
:10002000000000000000000000000000B9200008EF
:100030006B05000800000000B720000849240008F4
:100040001B0100081B0100081B0100081B01000820
:100050001B0100081B0100081B0100081B01000810
:100060001B0100081B0100081B0100081B01000800
:100070001B0100081B0100082905000835050008C0
:100080001B0100081B0100081B01000825280008AF
:100090003128000895010008A10100081B01000893
:1000A0001B0100081B0100081B0100081B010008C0
:1000B0001B0100081B0100081B0100081B010008B0
:1000C0001B0100081B0100081B0100081B010008A0
:1000D0001B010008192800081B0100081B0100086B
:1000E0001B0100081B0100081B010008DFF80CD0F1
:1000F00000F03CF8004800477D2800080806002072
:100100000648804706480047FEE7FEE7FEE7FEE7B1
:10011000FEE7FEE7FEE7FEE7FEE7FEE79D240008B8
:10012000ED00000840EA01039B0703D009E008C97D
:10013000121F08C0042AFAD203E011F8013B00F8AC
:10014000013B521EF9D27047D2B201E000F8012BF8
:10015000491EFBD270470022F6E710B513460A4647
:1001600004461946FFF7F0FF204610BD064C074D28
:1001700006E0E06840F0010394E807009847103477
:10018000AC42F6D3FFF7B6FF9C290008BC29000853
:10019000FEE70000014800F04DBB0000D800002041
:1001A000014800F047BB0000D80000202DE9F05FB7
:1001B000A84CA078012876D1A74F0026324604210A
:1001C000384601F096F800220121384601F091F8F6
:1001D0004FF4805BA14D4FF40059DFF884A2B8467C
:1001E00011E0012202214746404601F082F8012039
:1001F00000F078FF00220221384601F07AF8012051
:1002000000F070FF761C5F465946284601F06CF8F6
:10021000012807D04946284601F066F8012801D098
:100220005645DED34FF40051A946284601F05CF84C
:100230004FF0010A01282FD100202070524684F887
:1002400001A00121404601F054F80025BB462E468E
:10025000474611E00122022138466D1C761C01F050
:1002600048F8012000F03EFF00220221384601F04C
:1002700040F8012000F036FF5946484601F034F8B6
:10028000012802D077488542E4D359464D46484676
:1002900001F02AF8012807D05946CB46484601F01C
:1002A00023F801284FD083E0A04622780121384668
:1002B00001F01FF8002411E0641CA4B20122022105
:1002C000384601F016F8012000F00CFF0022022150
:1002D000384601F00EF8012000F004FF5946284688
:1002E00001F002F80128E7D000250122022138465A
:1002F00000F0FFFF012000F0F5FE00220221384649
:1003000000F0F7FF012000F0EDFE6D1CEDB2282D8E
:10031000EBD9301B28384446C8F84000D8F84000D4
:100320001430C8F83000D8F840001430C8F82C0059
:100330000421D8F8300002F0D5F80020A070012286
:100340000421384682E084F800A04FF000095246AC
:1003500084F8019001214746404600F0CAFF00267C
:100360003546DA464FF4005811E0012202213846A2
:100370006D1C761C00F0BDFF012000F0B3FE0022D2
:100380000221384600F0B5FF012000F0ABFE4146E7
:10039000504600F0A9FF012802D033488642E4D33A
:1003A000C34641465646504600F09EFF012802D003
:1003B0000120BDE8F09FA046627801213C46384606
:1003C00000F097FFB24600275E4611E07F1CBFB2E7
:1003D00001220221204600F08CFF012000F082FE65
:1003E00000220221204600F084FF012000F07AFE66
:1003F0003146504600F078FF0128E7D00026012260
:100400000221204600F075FF012000F06BFE002263
:100410000221204600F06DFF012000F063FE761CF3
:10042000F6B2142EEBD3E81B28384546C8F8400036
:100430004E46C8F83090C8F82C900421D8F84000F7
:1004400002F050F8AE7001220421204600F051FF66
:100450000020AEE70000002000080140000C014031
:10046000FFFF0400FFFF0900FFFF02002DE9F84F26
:1004700004460D46DFF8A8801F4616464FF00009D7
:100480004FF0020A28430CD1C8E903A94146254B85
:100490000022A1F16800C8F8006000F07AF8002896
:1004A00025D0E0B2012F08D0210A41EA0561CAB285
:1004B000022F0AD0042F1CD018E08DF80000C8F8D5
:1004C0000C900121C8F8006026E08DF800208DF81E
:1004D0000100C8E9039AC8F800601149114B6A4647
:1004E000A1F1680000F055F8002800D00120BDE817
:1004F000F88F210E41EA05218DF80010210C41EA08
:1005000005418DF801108DF802208DF80300C8F820
:100510000C900421C8F80060C8F81010DDE7000056
:100520004001002060000020014800F0CBBC00002A
:10053000C4010020014800F0C5BC0000800100207B
:1005400030B590F840500124AC40C56B6C60046835
:1005500063604368102B036803D099600068C26031
:1005600030BD9A600068C16030BD7047704790F838
:100570002020012A07D0022A05D0416A41F48021B7
:10058000416201207047006842690A4342610020CD
:100590007047F0B590F820500468A468012D05D08C
:1005A000022D03D0416A41F4802153E014F0406FE2
:1005B00001D1E5004BD5C4F30164022C03D9416A93
:1005C00041F4000146E00125A5401D608D684FF40F
:1005D000C0739DB1CE6835434E6845EAC6050668CE
:1005E00003EB0417F5514FF4C275076805EB0415CA
:1005F0000E697E51097D012905D009E00E88CD687C
:1006000045EA4655EBE701684E5946F480764E516F
:100610001179D2F805504FF4C67641EA05250168F4
:1006200006EB04168D511178D2F801204FF4C475F1
:1006300041EA0221026805EB04155151006803EB01
:100640000411425842F0010242500020F0BD416ABC
:1006500041F4001141620120F0BD000010B590F896
:1006600020300268012B07D0022B05D0416A41F4EB
:1006700080214162012010BDD2F8000240F001004B
:10068000C2F80002087D00F01F0301209840D2F854
:100690001C328343C2F81C32CB69B3B9D2F80C3296
:1006A0008343C2F80C328C894B6864F31F434C6956
:1006B00002EBC404C4F840320C890B6864F31F4396
:1006C0004C6902EBC404C4F84432CB69012B16D147
:1006D000D2F80C320343C2F80C320C884B6864F336
:1006E0001F434C6902EBC404C4F840320C89CB6848
:1006F00064F31F434C6902EBC404C4F844328B69B1
:10070000002BD2F804320FD053EA0003C2F80432AF
:100710000B69002BD2F8143208D00343C2F814320C
:10072000096A012904D008E08343EFE78343F5E732
:10073000D2F81C120143C2F81C12D2F8000220F0B9
:100740000100C2F80002002010BD704730B590F8DB
:100750002040012C05D0022C03D0416A41F48021B5
:100760005DE00468002955D02469A40754D04FF4F3
:10077000D874056804EB01142D5915F00405956033
:1007800005682D594ED0ED08556005682C5904F0C8
:100790000204D4604FF4DA74056804EB01142D5997
:1007A00005F00F05156105682D59C5F307259561FD
:1007B00005682C59240C54614FF4DC72046802EB78
:1007C0000112A4581C700468A458240A5C700468C0
:1007D000A458240C9C700468A258120EDA704FF4CE
:1007E000DE72046802EB0112A4581C710468A4585C
:1007F000240A5C710468A458240C9C710468A258F3
:10080000120EDA71006881B1016941F020010161C5
:10081000002030BDE468A8E7416A41F4001141625C
:10082000012030BD6D0D1560AFE7C16841F02001BA
:10083000C160EDE72DE9F05F0546006800244669D8
:10084000D0F804908768D0F80CB0D0F810A0D0F899
:100850001880F10748D0F90714D001218160B8074A
:1008600003D5284600F0DBFA0CE0780702D54FF4F8
:10087000006407E0380702D54FF4805402E02846B0
:1008800000F0CCFAF80516D529684FF4807088601E
:10089000B80503D5284600F0C4FA0CE0780502D567
:1008A00044F4005407E0380502D544F4804402E0E3
:1008B000284600F0B5FAF80316D529684FF48030C1
:1008C0008860B80303D5284600F0ADFA0CE0780341
:1008D00002D544F4004407E0380302D544F48034E0
:1008E00002E0284600F09EFA300707D55FEACB60A9
:1008F00004D52968102044F40074C86070074FF0D4
:10090000080707D55FEA0B7004D52868C76028463A
:1009100000F07EF9B00706D52868C068800702D0CD
:10092000284600F077F9700607D55FEACA6004D55B
:100930002968102044F480640861B00607D55FEA96
:100940000A7004D528680761284600F037FAF006D7
:1009500006D528680069800702D0284600F02FFAE3
:10096000B00308D55FEAC96005D529681020486042
:10097000284600F025FAF00307D55FEA097004D590
:1009800028684760284600F04FFA300446D55FEAF1
:10099000497040D5F00504D55FEAC87001D044F035
:1009A0000104B00504D55FEA887001D544F0020463
:1009B000700504D55FEA487001D544F004043005A1
:1009C00029D518F0700F26D008F07000402815D0F7
:1009D00006DC102809D020280AD0302816D10AE0D9
:1009E00050280ED0602811D10EE044F008040DE02C
:1009F00044F010040AE044F0200407E044F040040E
:100A000004E044F0800401E044F4807428688169C3
:100A100021F070018161296804204860002C05D014
:100A2000686A204368622846FFF78FFEBDE8F09FA2
:100A300070B5040003D094F8200010B104E0012048
:100A400070BD204600F082F82068016821F00201A4
:100A5000016000F053FC0546052604E000F04EFC62
:100A6000401B0A2811D8206840688007F6D4206807
:100A7000016841F00101016000F040FC05460BE017
:100A800000F03CFC401B0A2806D9606A40F40030A4
:100A9000606284F82060D2E720684068C007EFD029
:100AA000207E0128206801683DD021F0800101608E
:100AB000607E01282068016838D021F04001016083
:100AC000A07E01282068016833D021F02001016058
:100AD000E07E0128206801682ED041F010010160FD
:100AE000207F01282068016829D021F008010160D9
:100AF000607F01282068016824D021F00401016092
:100B0000D4E902010843D4E904121143084361689F
:100B1000491E08432168C86100206062012084F8F2
:100B20002000002070BD41F08001C0E741F040018D
:100B3000C5E741F02001CAE721F01001CFE741F0FD
:100B40000801D4E741F00401D9E7000010B586B0F0
:100B50000021009101910291039100682849884287
:100B60004BD12848C16941F00071C161C16901F0F0
:100B700000710491816941F0080181618069224C12
:100B800000F0080004904FF4807000906946204601
:100B900000F0BAFA60150090022001900320039043
:100BA0006946204600F0B0FA1848416821F4C04177
:100BB00041F0E06141F48041416000221146132080
:100BC00000F008FC132000F0F7FB0022114614206F
:100BD00000F000FC142000F0EFFB0022114615206D
:100BE00000F0F8FB152000F0E7FB0022114616206C
:100BF00000F0F0FB162000F0DFFB06B010BD000097
:100C00000064004000100240000C01400000014060
:100C10007047000070B5664B664A0021FFF796FDED
:100C2000644E634D3068A5F16404C0F307210329C5
:100C300073D1C0B20F2870D2DFE800F06F086F15D3
:100C40001D2529313941494D51566800A08B40F08E
:100C50000200A0832878207168786071E878A0711C
:100C60002879E07159E0A08B40F00800A083288823
:100C700040BA208251E0A08B40F01000A083288869
:100C800040BAA08249E0A08B40F020002AE0A08B6F
:100C900040F04000A083288840BA60823DE0A08BED
:100CA00040F08000A083288840BA608335E00121AD
:100CB000C92001F017FCA08B40F4807012E00121E4
:100CC000C82001F00FFCA08B40F400700AE0A08B5C
:100CD00040F4806006E0A08B40F4006002E0A08B4E
:100CE00040F48050A08318E0A08B40F40050A08313
:100CF000288840BA2083688840BAE0826868E97929
:100D000000BA20F0FF000843206506E0A08B40F405
:100D10008040A083288840BAE0833068C0F3072170
:100D200007291FD1C0B206281CD2DFE800F01B0340
:100D30001C28383CE08940F00200E0812868E9780E
:100D400000BA20F0FF000843A0641A4804221849A2
:100D5000583801F027F800204FF4FA61401C80B2A7
:100D60008842FBD370BDE08940F00400E081286830
:100D7000E97800BA20F0FF000843606470BD0E49B6
:100D80004FF40050C860E08940F00800E081286816
:100D9000E97800BA20F0FF000843E06470BDE08904
:100DA00040F0100002E0E08940F02000E08170BDDA
:100DB0006400002058010020001001407047704777
:100DC0007047000070B5044690F82000012804D058
:100DD000606A40F40020606218E0022084F820007D
:100DE0002068016821F00101016000F087FA0546E2
:100DF0000EE000BF00F082FA401B0A2808D9606AA2
:100E000040F400306062052084F82000012070BDAD
:100E100020684068C007EDD1606270BD70477047C0
:100E200070477047704770477047000010B590F8E2
:100E300021100024022903D00421816301243DE014
:100E400001680A6822F00E020A6001680A6822F04E
:100E500001020A601A4A0168914201D1012121E090
:100E6000174A1432914201D110211BE0144A283252
:100E7000914201D1891515E0114A3C32914201D1CC
:100E800089140FE00E4A5032914202D14FF4803162
:100E900008E00B4A6432914202D14FF4801101E024
:100EA0004FF08071064A083A5160012180F8211004
:100EB000002180F82010416B01B18847204610BD09
:100EC000080002402DE9F05FC16B0C6801680B68F7
:100ED000D0F840C0042202FA0CF2494DDFF824A1F8
:100EE000494E4A4FDFF828B1DFF828E122422CD0E2
:100EF0005A072AD50A68920603D40A6822F0040227
:100F00000A600168A94201D1042219E0514501D1CA
:100F1000402215E0B14202D14FF4806210E0B942A4
:100F200002D14FF480420BE0594502D14FF48022A8
:100F300006E0714502D14FF4800201E04FF080627B
:100F40002F4908394A60C16A3BE04FF0020808FAAD
:100F50000CF818EA040F4FF000094FF0010235D0E9
:100F60005FEA837832D50B689B0605D40B6823F0C3
:100F70000A030B6080F821200168A94201D10222F6
:100F800019E0514501D1202215E0B14202D14FF4C0
:100F9000007210E0B94202D14FF400520BE0594503
:100FA00002D14FF4003206E0714502D14FF4001235
:100FB00001E04FF00072124908394A6080F8209031
:100FC000816A00291AD0BDE8F05F0847082505FAB4
:100FD0000CF5254212D01B0710D50B6823F00E0329
:100FE0000B6090F84010C36B02FA01F15960826304
:100FF00080F8212080F82090016BE2E7BDE8F09FA7
:10100000080002401C000240300002404400024040
:10101000580002406C00024030B528B308C813499C
:1010200014221944B1FBF2F18900C16310498163B4
:10103000022141771A6843F6F0718A43D0E900141F
:101040002143D0E902452C432143046921434469EB
:101050002143846921431143196000214163012226
:1010600042770177084630BD012030BDF8FFFDBF53
:101070000000024070B5044690F8200000250128C9
:101080000CD0012084F8200094F821600020012E6B
:1010900006D084F820000225284670BD022070BDCD
:1010A000022684F82160A0632068066826F0010605
:1010B00006602046FFF744FAE06A002820680168CD
:1010C00002D041F00E0106E021F004010160206829
:1010D000016841F00A0101602068016841F00101E6
:1010E0000160D9E770B5044600F008F90546601CB8
:1010F00002D004480078044400F000F9401BA042EC
:10110000FAD370BD740000202DE9F84FDFF8B891D4
:10111000002409F1040A0AF1040B23460F270BF1FE
:10112000040EC9E00125A5402A40AA427DD1674EA0
:10113000D1F804C0ACEB0608B44532D014DCBCF1E5
:10114000030F3AD009DCBCF1000F2AD0BCF1010F2B
:101150001CD0BCF1020F31D11DE0BCF1110F17D032
:10116000BCF1120F2AD119E0B8F5881F19D006DC9E
:10117000B8F5803F15D0B8F5801F1FD111E0B8F544
:10118000001F0ED0B8F5041F18D10AE0CB6815E097
:10119000CB681B1D12E0CB6808330FE0CB680C3323
:1011A0000CE08B682BB1012B4FF0080303D0456195
:1011B00004E0042302E0056100E00023FF2A01D8D7
:1011C000064601E000F104064FEA840501D9A5F1C5
:1011D0002005D6F8008007FA05FC28EA0C0803FA77
:1011E00005F548EA0508C6F800804D68ED0062D5AF
:1011F000374DAE6946F00106AE61AD6924F00306D5
:1012000005F001050095334D06EB050CDCF80850A0
:10121000A607360F07FA06F825EA0805DFF8B880B2
:10122000404503D14FF0000817E044E0DFF8AC8000
:10123000404502D14FF001080FE0DFF8A48040459F
:1012400002D14FF0020808E0DFF89880404502D153
:101250004FF0030801E04FF0040808FA06F848EAE6
:101260000508CCF808804D68D9F80060ED034D46BC
:1012700001D5164300E096432E604D68DAF8006011
:10128000AD03554601D5164300E096432E604D68E8
:10129000DBF80060ED025D4601D5164300E09643A1
:1012A0002E604D68DEF80060AD02754601D516432C
:1012B00000E096432E60641C0D682A46E5407FF4EA
:1012C00031AFBDE8F88F00000004014000001110AC
:1012D000001002400000014000080140000C0140E5
:1012E00000100140001401408068084000D0012037
:1012F00070470AB1016170470904FBE70148806843
:101300007047000074000020024881680278114490
:101310008160704774000020074810B5016841F0F3
:1013200010010160032000F075F8002000F006F8BD
:1013300000F024F8002010BD0020024070B50D4DD3
:1013400004464FF47A712878B1FBF0F00A49096835
:10135000B1FBF0F000F0ECFA48B9102C07D20022F3
:101360002146501E00F036F800206C6070BD012050
:1013700070BD000074000020800000200C4808B5FB
:10138000816941F001018161816901F001010091F0
:10139000C16941F08051C161C06900F08050009086
:1013A0000448416821F0E06141F00071416008BDEE
:1013B0000010024000000140002809DB00F01F027D
:1013C000012191404009800000F1E020C0F80011A7
:1013D00070470000F0B40E4B1B680C46C3F30223A9
:1013E000C3F10705042D00D90425191D072901D2D1
:1013F000002300E0DB1E012606FA05F1491E21400C
:1014000099409E40761E16403143F0BC01F017BA59
:101410000CED00E0064900F0070208684FF6FF03F4
:10142000184040EA0220034A104308607047000059
:101430000CED00E00000FA052DE9F0470F4605002D
:1014400061D0434E306800F00700B84209D23068DE
:1014500020F0070038433060306800F00700B842E1
:1014600051D128683B4C810712D5400703D56068ED
:1014700040F4E06060602878000703D5606840F4BD
:10148000605060606068A96820F0F0000843606008
:101490002878C00728D06868012810D02168022861
:1014A00010D0890700292EDA616821F00301014379
:1014B0006160FFF723FF804641F288390DE0216823
:1014C0008903EFE78901EDE7FFF718FFA0EB0801BB
:1014D000494502D90320BDE8F0876068696800F0DB
:1014E0000C00B0EB810FEFD1306800F00700B8427C
:1014F0000BD9306820F0070038433060306800F0C6
:101500000700B84201D00120E5E72878400705D55B
:101510006068E96820F4E0600843606028780007AC
:1015200006D56068296920F4605040EAC100606017
:1015300000F038F86168084AC1F30311515CC840F3
:101540000649086006480068FFF7F8FE0020C2E779
:101550000020024000100240842900088000002082
:10156000780000200448054900684968044AC1F32E
:101570000221515CC84070478000002000100240EA
:10158000942900080448054900684968044AC1F3E1
:10159000C221515CC840704780000020001002400A
:1015A0009429000812A185B00FC98DE80F0014A07E
:1015B000144A006804905168134801F00C03042B8E
:1015C00010D0082B0ED1C1F38343C9031DF80300CB
:1015D0000AD5516804AAC1F34041515C0A4A5043FC
:1015E000B0FBF1F005B0704708494843FAE7000046
:1015F00002030405060708090A0B0C0D0E0F101054
:10160000010200000010024000127A0000093D00B3
:101610002DE9F84F040070D02078C04DC00749D0A4
:101620006868C0F38100012807D06868C0F38100B2
:10163000022809D16868C00306D52868800339D517
:1016400060680028E7D035E06068B0F5803F0BD0D7
:1016500010B1B0F5A02F11D0286820F48030286098
:10166000286820F4802002E0286840F48030286058
:10167000606890B1FFF742FE06460AE0286840F431
:1016800080202860F0E700BFFFF738FE801B642849
:1016900073D828688003F7D50CE0FFF72FFE0646C5
:1016A00005E000BFFFF72AFE801B6428F0D82868F9
:1016B0008003F7D420789A4E80074FF001094FF04D
:1016C000000839D5686810F00C0F07D06868C0F3BF
:1016D0008100022809D16868C00306D42868800701
:1016E00014D52069012808D110E02069B0B1C6F8EE
:1016F0000090FFF703FE074605E00AE1FFF7FEFD55
:10170000C01B0228C4D828688007F7D528686169FB
:1017100020F0F80040EAC10028600DE0C6F8008023
:10172000FFF7ECFD074604E0FFF7E8FDC01B0228C9
:1017300023D828688007F7D4207800072CD579486B
:10174000A169D9B1C0F80090FFF7D8FD074604E0C1
:10175000FFF7D4FDC01B02280FD8686A8007F7D5B1
:1017600071484FF4FA510068B0FBF1F0009000BFEF
:101770000098411E0091FAD20EE080E0C0F800808F
:10178000FFF7BCFD074604E0FFF7B8FDC01B0228C9
:1017900075D8686A8007F7D42078400760D5E86973
:1017A0000027C00008D4E86940F08050E861E8698B
:1017B000012700F0805000905C480168C90513D4EF
:1017C0000168834641F480710160FFF797FD82460E
:1017D00006E000BFFFF792FDA0EB0A0064284ED898
:1017E000DBF80000C005F5D5E06801280AD008B193
:1017F000052813D0286A20F001002862286A20F00A
:10180000040002E0286A40F001002862E06841F22A
:10181000883B98B1FFF772FD82460BE0286A40F0E2
:1018200004002862EEE700BFFFF768FDA0EB0A01A5
:1018300059455AD8286A8007F6D50CE0FFF75EFDB7
:10184000824605E0FFF75AFDA0EB0A0159454CD846
:10185000286A8007F6D41FB1E86920F08050E8615B
:10186000E06988B36968C1F38101022944D0022884
:10187000C6F8608004D0FFF741FD044638E034E04C
:10188000FFF73CFD074604E0FFF738FDC01B0228C8
:101890002BD828688001F7D4206AB0F5803F05D1A5
:1018A0006868A16820F4003008436860D4E9080142
:1018B0000843696821F4741108436860C6F86090B1
:1018C000FFF71CFD044606E025E000BFFFF716FD0C
:1018D000001B022809D828688001F7D51BE000BF4B
:1018E000FFF70CFD001B022802D90320BDE8F88F8A
:1018F00028688001F4D40EE00128F7D06868226AD5
:1019000000F48031914204D1616A00F47010884281
:1019100001D00120EAE70020E8E7000000100240C3
:1019200000004242800442428000002000700040DB
:1019300010B5401EB0F1807F01D3012010BD4FF0E3
:10194000E02460610F21601700F079FF0020A061A2
:1019500007202061002010BD7047000070B50268AC
:1019600004461068D168536910F00F0F50D003F08F
:10197000010501F4907635435DD0C20705D0CA0554
:1019800003D5E26B42F00102E263420705D5DA07B4
:1019900003D0E26B42F00202E263820705D5DA0768
:1019A00003D0E26B42F00402E263020705D5DA07D6
:1019B00003D0E26B42F00802E263E26B002A33D00C
:1019C000800604D5880602D5204600F04CFE20682B
:1019D0004069E16BC0F38010090700D428B32046AA
:1019E00000F02AFE2068416949061AD5416921F0B4
:1019F00040014161606BA0B11B494163606BFFF71F
:101A000015FA002810D0606B416BBDE870400847A4
:101A1000830610D58B060ED52046BDE8704000F039
:101A200022BE2046FFF798FF70BD2046FFF794FFC7
:101A30000020E06370BD030606D50B0604D52046E2
:101A4000BDE8704000F0B6BE4006F3D54806F1D5BB
:101A5000D168204621F04001D160202184F839105E
:101A600000F0E0F970BD00006125000870B50400C9
:101A700004D094F83900002510B106E0012070BDB3
:101A800084F83850204600F023F8242084F83900E8
:101A90002068C16821F40051C160204600F02EFE8C
:101AA0002068016921F4904101612068416921F0B9
:101AB0002A0141612068C16841F40051C160E563B9
:101AC000202084F8390084F83A00002070BD00001E
:101AD000F0B585B000240646009401940294039466
:101AE00000682C49884252D12B48816941F48041D9
:101AF0008161816901F480410491816941F00401AF
:101B000081618069254D00F0040004904FF400705D
:101B10000090022001900320039069462846FFF7B9
:101B2000F3FA2815CDE90004694628460294FFF728
:101B3000EBFA1C4D1A488027C5E90004C5E90247A5
:101B40002C616C61AC612846EC61FFF765FA08B165
:101B5000FEF70CFD75636E621148134D143801C514
:101B6000102091C5104845F810496C61AC61EC61DA
:101B7000FFF752FA08B1FEF7F9FC3563002211466F
:101B800025206E62FFF726FC2520FFF715FC05B027
:101B9000F0BD000000380140001002400008014084
:101BA0005800024080010020C4010020F8B504461E
:101BB00090F83A0020283CD1C1B3BAB394F8380069
:101BC000012836D0012084F83800A162A2850025C2
:101BD000E563222084F83A00636B17489862636BD0
:101BE0001648D862636B16481863606B13464563EA
:101BF0000846666B216802463046091DFFF73AFA2F
:101C0000206801684168009184F83850C16841F447
:101C10008071C1602068416941F001014161206823
:101C2000416941F0400141610020F8BDFFE701201A
:101C3000FBE70220F9E70000BB250008F7250008B4
:101C4000712500082DE9F041534801780122002553
:101C5000524C022967D003DC39B1012948D148E050
:101C60000E297DD0122943D185E00179437841EADC
:101C700003638178C678090441EA06210B4346498B
:101C80001C310B60037A467943EA06638679C7798B
:101C9000360446EA072633434B60837A467A43EAA2
:101CA00006230B81037BC67A43EA06234B81837BA1
:101CB000467B43EA06238B81837CC67B43EA06632B
:101CC000067C477C360446EA072633430B61837D56
:101CD000C67C43EA0663067D477DB60646EA0726CC
:101CE00033434B61037EC07D43EA00200883E284D6
:101CF00048E00179437841EA03638178C6780904B2
:101D000041EA06210B4325496C310B60037A467981
:101D100043EA06638679C079360446EA0020034325
:101D20004B60E2722EE00179437841EA03638178E7
:101D3000C678090441EA06210B431749F0310B60CC
:101D4000037A467943EA06638679C779360446EA18
:101D5000072633434B60837A467A43EA062300E042
:101D600007E00B81017BC07A41EA0020A084227247
:101D700008E0A27006E0002340F20122184619464E
:101D8000FEF774FB0449192201F17C00FFF70EFFF6
:101D9000A583BDE8F0810000840000200000002041
:101DA0007047000070B5044690F83900202830D103
:101DB00069B362B394F8380001282AD0012084F86E
:101DC00038002162A284E2840025E563212084F8A2
:101DD0003900236B10489862236B1048D862236B3C
:101DE0000F481863206B134645632668206B321D2D
:101DF000FFF740F921686FF04000086084F8385020
:101E00002068416941F080014161002070BD0120DE
:101E100070BD022070BD0000012600082F260008BA
:101E20007125000870477047FEE70000F0B52248B2
:101E30008BB0204901605A210024C0E901144FF001
:101E40008071C1604FF4402101614FF48011416104
:101E50000476447684760125C57604774477FEF7C8
:101E6000E7FD059406944FF4C0404FF4F0364FF66A
:101E7000FF7707948DE8D1000E200494CDE9085037
:101E800069460D48FEF7EAFB4FF4604005958DE882
:101E9000D10069460848FEF7E1FB0748FEF792FFCC
:101EA00002210548FEF763FB03486830846004752F
:101EB0000BB0F0BD00640040D80000202DE9F047D1
:101EC00086B00026314800960196029603968169F5
:101ED00041F010018161816901F010010491816973
:101EE00041F020018161816901F020010491816943
:101EF00041F004018161816901F00401049181696B
:101F000041F0080181618069DFF8848000F00800F9
:101F10004FF4C0440490002221464046FFF7E9F9FF
:101F2000DFF87090002207214846FFF7E2F9DFF85A
:101F300068A06710002239465046FFF7DAF90125FC
:101F4000CDE9004502240294694640460394FFF718
:101F5000DBF803200090CDE901546946484603941C
:101F6000FFF7D2F80420CDE90005CDE90254694617
:101F70004846FFF7C9F8CDE90264CDE90075694626
:101F80005046FFF7C1F806B0BDE8F08700100240E8
:101F90000010014000080140000C0140FEE7000075
:101FA0002DE9F041404C206BE16A884276D0DFF8A1
:101FB000FC80002204214046FFF79BF9E06A216B78
:101FC000884205D2206BE16A401A6065227804E0FD
:101FD000E06A216B401A6065627801214046FFF794
:101FE00088F9334E70680025B0F57A7F08D9607A99
:101FF000012805D1002202214046FFF77AF96572D7
:10200000D4E915010127B1EB500F18D27068A16B0C
:10201000884214D9012202214046FFF76AF975600F
:102020006772A06D401CA065616BA2895143E26B91
:1020300000FB0020B1FBF0F0616B0844A063D4E921
:102040001501B1EB500F1AD37068A16B884216D9F5
:10205000012202214046FFF74CF975606772A06DBE
:10206000401CA065616D081AE16B00FB0011606BFC
:10207000A2895043B0FBF1F0616B0844A063D4E93E
:10208000150181420DD1E06A20636565A565657221
:10209000A563012204214046FFF72BF90020BDE88B
:1020A000F0810120FBE70000000000200008014053
:1020B000001000E07047704770470000F8B54E4CC4
:1020C0000025207A012802D0022813D035E04B4E9B
:1020D0003068E062042340F2032200217068FEF7BA
:1020E000C5F9308902234FF483720021FEF7BEF94F
:1020F00002202072E08900071FD5A08B40061CD566
:10210000E06A216B884218D100234FF48772184689
:102110001946FEF7ABF9B4F92400022340F203128A
:10212000C117FEF7A3F9E08920F00800E081A08B39
:1021300020F04000A08303202072A08B400439D5FA
:10214000207A032836D1208C10B1608CB8B131E0F0
:10215000E08B2084E08B000A8DF80000E08B8DF886
:1021600001002648022269467438FFF71BFEA08B47
:1021700020F48040A0836420FEF7B4FF19E0208C97
:10218000C0B1E08B6084E08B000A8DF80000E08B2A
:102190008DF801001948022269467438FFF702FEE3
:1021A000A08B20F48040A0836420FEF79BFF0420D6
:1021B0002072E583A08B00070FD5207A04280CD16C
:1021C000002340F2051218461946FEF74FF9052084
:1021D0002072A08B20F00800A083A08B800609D578
:1021E000207A052806D1A08B20F02000A08325723C
:1021F00025846584F8BD00000000002074010020E3
:1022000070B5144C0025E07A012813D002281FD1A4
:10221000206BE16A88421BD1E089000718D5E0896C
:1022200020F00800E081E572BDE8704001216520E2
:1022300000F058B907486C300168E1624068042337
:1022400040F203220021FEF711F90220E072DFE7DD
:1022500070BD0000000000202DE9F047724C002600
:10226000724DE08C86B040F203274FF4837A012848
:1022700013D12868E06204233A4600216868FEF71B
:10228000F5F86889E1780223401AC1175246FEF733
:10229000EDF80220E0846648C660E08940F2031948
:1022A00000071AD5A08B400617D5E06A216B88423B
:1022B00013D1E08C022810D1B5F908000223C11710
:1022C0004A46FEF7D3F80320E084E08920F00800B6
:1022D000E081A08B20F04000A083A08B40F2051885
:1022E00080050AD50023E684424618461946FEF7C3
:1022F000BDF8A08B20F40070A083A08B00070FD541
:10230000E08C03280CD100234FF482721846194642
:10231000FEF7ACF8A08B20F00800A0830420E08436
:10232000A08BC00615D5E08C042812D13E493F4849
:10233000022264316030FFF735FD00234246184623
:102340001946FEF793F8A08B20F01000A08305201B
:10235000E084A08B800610D5E08C05280DD10423E5
:102360003A4600216869FEF781F82869E062A08B8F
:1023700020F02000A0830620E084E089000713D528
:10238000E06A216B88420FD1E08C06280CD1B5F9A8
:1023900018000223C1174A46FEF768F8E08920F0CA
:1023A0000800E0810720E084A08B000710D5E08CB6
:1023B00007280DD1A08AE1780223401AC11752469E
:1023C000FEF754F8A08B20F00800A0830820E084DA
:1023D000A08B40060AD5E08C082807D1002342468E
:1023E00018461946FEF742F80920E084A08B8006C3
:1023F00016D5E08C092813D1A08B20F02000A083F3
:1024000014220CA16846FDF78DFE08481222694689
:102410006030FFF7C7FC6420FEF764FE2E60E684A0
:1024200006B0BDE8F087000000000020A0000020FA
:10243000001001405472616E7366657220636F6DA7
:10244000706C657465210000FEF75EBF30B58FB01B
:1024500028216846FDF77FFE14210AA8FDF77BFEC0
:1024600001210804CDE90010002402940225049102
:10247000CDE907504FF4E01009906846FFF7C8F81F
:102480000F20CDE90A056802CDE90C400E9002212B
:102490000AA8FEF7D1FF0FB030BD00000D4801685B
:1024A00041F00101016041680B4A1140416001683F
:1024B0000A4A11400160016821F4802101604168ED
:1024C00021F4FE0141604FF41F0181600449C00303
:1024D00008607047001002400000FFF8FFFFF6FEA2
:1024E00008ED00E013B59DF80400012808D11A4951
:1024F0000098012208701948FFF754FC00282AD0E0
:102500009DF8040002280DD100980222010A124809
:102510001E3001700099417001461048FFF742FCDF
:10252000002818D09DF80400042813D10098042234
:10253000010E0948523001700099090C4170009950
:10254000090A81700099C17001460448FFF72AFC0E
:10255000002800D001201CBD0A000020000100203E
:1025600010B5406A0021C185C184FFF7F5F910BD9F
:1025700070B5446A2068406994F83910C0F3C010FF
:102580000025212904D118B1E584204600F062F825
:102590002068406994F83A10C0F38010222904D1D1
:1025A00018B1E585204600F047F8E06B40F01000D8
:1025B000E0632046FFF7D0F970BD10B50146406AD0
:1025C00009680968890613D40021C1850168CA68B1
:1025D00022F48072CA6001684A6922F001024A61ED
:1025E00001684A6922F040024A61202180F83A10CD
:1025F000FFF728FB10BD10B5406AFFF7D1FB10BDF7
:1026000010B50146406A0968096889060CD40021A2
:10261000C18401684A6922F080024A610068C16889
:1026200041F04001C16010BDFFF7FCFB10BD10B5CB
:10263000406AFFF7F8FB10BD0168CA6822F4907287
:10264000CA6001684A6922F001024A61202180F8CB
:102650003A1070470168CA6822F0C002CA6020219F
:1026600080F83910704710B590F83A10222901D03F
:10267000022010BD8168B1F5805F11D00169002989
:1026800001681FD0496801F07F03816A4A1C826299
:102690000B70C18D491E0904090CC18518D02BE0AF
:1026A0000269816A002A0268526805D0D2B20A80A3
:1026B000816A491C8162ECE7C2F308020A80816AE0
:1026C000891CF7E74A68816A4B1C83620A70E0E75D
:1026D0000168CA6822F02002CA600168CA6822F450
:1026E0008072CA6001684A6922F001024A612021B1
:1026F00080F83A10FFF7A6FA002010BD2DE9F0414E
:10270000044600680169E26821F440511143016107
:102710002169A0680843616908432168CA6841F2D9
:102720000C639A430243CA6020684169A26921F49C
:102730004071114341611E49206864253226884258
:1027400002D1FEF71FFF01E0FEF70CFF00EBC00116
:1027500001EB001160686FF018078000B1FBF0F228
:10276000B2FBF5F2B1FBF0F37A4303EB8202B1FB6B
:10277000F0F306EB0212B2FBF5F2B3FBF5F302F055
:10278000F00202EB0312B1FBF0F3B1FBF0F0B0FB8F
:10279000F5F0784303EB800006EB0010B0FBF5F09A
:1027A000216800F00F0010448860BDE8F08100004F
:1027B0000038014090F83910212901D002207047DB
:1027C0008168B1F5805F016A0BD04A1C0262026821
:1027D00009785160C18C491E0904090CC1840ED0CE
:1027E00017E009880268C1F30801516001690029F6
:1027F000016A02D0491C0162ECE7891CFBE7016811
:10280000CA6822F08002CA600068C16841F04001D5
:10281000C1600020704700000148FFF79FB800002A
:10282000000100200148FEF705B80000D800002094
:102830000148FDF7FFBF0000D8000020FEE70907B0
:10284000090E002804DB00F1E02080F80014704736
:1028500000F00F0000F1E02080F8141D704702E046
:1028600008C8121F08C1002AFAD17047704700201B
:1028700001E001C1121F002AFBD1704732488AB023
:10288000016841F0807101603048016841F0010148
:10289000016000244460FEF73FFDFFF7D7FDFFF71E
:1028A0000DFB2B48416941F0010141614069002263
:1028B00000F00100089011460E20FEF78BFD0E205F
:1028C000FEF77AFD002211460F20FEF783FD0F2050
:1028D000FEF772FDFFF7AAFA1F481E4901604FF488
:1028E0001661C0E901140C21C460C0E9044184618F
:1028F000C461FFF7BBF8012204211848FEF7F9FC78
:10290000174DEC6040F6B830FEF7ECFB6814E86059
:10291000114919227C391048FFF748F9202211A1EA
:102920006846FDF7FFFB1E2269460B48FFF73AFA9F
:10293000FFF7C4FBFFF790FCFFF762FCFFF730FBEB
:10294000FDF734FCF4E70000FCED00E0001000E0CF
:102950000010024000380140000100200008014042
:102960000010014053746172742070726F6772615D
:102970006E2C20776861697420636F6D6D616E6481
:10298000210000000000000000000000010203041C
:10299000060708090000000001020304BC29000822
:1029A00000000020840000005E280008402A000883
:1029B00084000020840500006E2800080001003219
:1029C0000000000000000000E02E000000000000F9
:1029D00000000000000000000000000000000000F7
:1029E00000000000000000000000000000000000E7
:1029F000786900000000000058020000000000009C
:102A000000000000000000000000000000000000C6
:102A100000000000000000000000000000000000B6
:102A200000000000000000000000000000000000A6
:102A30000100000010000000000000000024F4006D
:04000005080000ED02
:00000001FF
