:020000040800F2
:10000000F804002001010008751B0008B117000862
:10001000FD1900086D010008B5230008000000006C
:10002000000000000000000000000000B11F0008F8
:100030004502000800000000771B0008BD200008F2
:100040001B0100081B0100081B0100081B01000820
:100050001B0100081B0100081B0100081B01000810
:100060001B0100081B0100081B0100081B01000800
:100070001B0100081B0100081B0100081B010008F0
:100080001B0100081B0100081B0100089D2300083C
:10009000A9230008710100087D0100084902000839
:1000A0001B0100081B0100081B0100081B010008C0
:1000B0001B0100081B010008592100081B01000852
:1000C0001B0100081B0100081B0100081B010008A0
:1000D0001B0100081B0100081B0100081B01000890
:1000E0001B0100081B0100081B010008DFF80CD0F1
:1000F00000F02AF800480047F5230008F804002023
:100100000648804706480047FEE7FEE7FEE7FEE7B1
:10011000FEE7FEE7FEE7FEE7FEE7FEE71121000847
:10012000ED000008D2B201E000F8012B491EFBD21D
:1001300070470022F6E710B513460A4604461946F2
:10014000FFF7F0FF204610BD064C074D06E0E068C3
:1001500040F0010394E8070098471034AC42F6D30E
:10016000FFF7C8FFAC240008CC240008FEE700001D
:10017000014800F0F7B9000090000020014800F0AD
:10018000F1B90000900000202DE9F84F04460D461B
:10019000DFF8A8801F4616464FF000094FF0020A0C
:1001A00028430CD1C8E903A94146254B002201F19F
:1001B0003400C8F8006000F085F8002825D0E0B2CF
:1001C000012F08D0210A41EA0561CAB2022F0AD0E4
:1001D000042F1CD018E08DF80000C8F80C90012105
:1001E000C8F8006026E08DF800208DF80100C8E90D
:1001F000039AC8F800601149114B6A4601F13400B6
:1002000000F060F8002800D00120BDE8F88F210E32
:1002100041EA05218DF80010210C41EA05418DF8D5
:1002200001108DF802208DF80300C8F80C9004210D
:10023000C8F80060C8F81010DDE700005C0000207E
:10024000200000207047000038B52021104800F041
:1002500047FDC8B900F04EFD0E4C42F21072216805
:100260001144884210D90C4840F20B316B460160B2
:100270000221C16000210A4601610146074800F0E1
:1002800021F800F037FD2060202000F02DFC38BD63
:10029000000C0140480000205C000020900000207D
:1002A00090F82020012A07D0022A05D0416A41F4A3
:1002B0008021416201207047006842690A4342611F
:1002C00000207047F0B590F820500468A468012D14
:1002D00005D0022D03D0416A41F4802153E014F08F
:1002E000406F01D1E5004BD5C4F30164022C03D962
:1002F000416A41F4000146E00125A5401D608D687A
:100300004FF4C0739DB1CE6835434E6845EAC605CB
:10031000066803EB0417F5514FF4C275076805EB47
:1003200004150E697E51097D012905D009E00E886A
:10033000CD6845EA4655EBE701684E5946F48076AC
:100340004E511179D2F805504FF4C67641EA052591
:10035000016806EB04168D511178D2F801204FF494
:10036000C47541EA0221026805EB04155151006889
:1003700003EB0411425842F0010242500020F0BD4C
:10038000416A41F4001141620120F0BD10B590F8BE
:1003900020300268012B07D0022B05D0416A41F4BE
:1003A00080214162012010BDD2F8000240F001001E
:1003B000C2F80002087D00F01F0301209840D2F827
:1003C0001C328343C2F81C32CB69B3B9D2F80C3269
:1003D0008343C2F80C328C894B6864F31F434C6929
:1003E00002EBC404C4F840320C890B6864F31F4369
:1003F0004C6902EBC404C4F84432CB69012B16D11A
:10040000D2F80C320343C2F80C320C884B6864F308
:100410001F434C6902EBC404C4F840320C89CB681A
:1004200064F31F434C6902EBC404C4F844328B6983
:10043000002BD2F804320FD053EA0003C2F8043282
:100440000B69002BD2F8143208D00343C2F81432DF
:10045000096A012904D008E08343EFE78343F5E705
:10046000D2F81C120143C2F81C12D2F8000220F08C
:100470000100C2F80002002010BD704730B590F8AE
:100480002040012C05D0022C03D0416A41F4802188
:100490005DE00468002955D02469A40754D04FF4C6
:1004A000D874056804EB01142D5915F00405956006
:1004B00005682D594ED0ED08556005682C5904F09B
:1004C0000204D4604FF4DA74056804EB01142D596A
:1004D00005F00F05156105682D59C5F307259561D0
:1004E00005682C59240C54614FF4DC72046802EB4B
:1004F0000112A4581C700468A458240A5C70046893
:10050000A458240C9C700468A258120EDA704FF4A0
:10051000DE72046802EB0112A4581C710468A4582E
:10052000240A5C710468A458240C9C710468A258C5
:10053000120EDA71006881B1016941F02001016198
:10054000002030BDE468A8E7416A41F4001141622F
:10055000012030BD6D0D1560AFE7C16841F020018D
:10056000C160EDE72DE9F05F0546006800244669AB
:10057000D0F804908768D0F80CB0D0F810A0D0F86C
:100580001880F10748D0F90714D001218160B8071D
:1005900003D5284600F086FA0CE0780702D54FF420
:1005A000006407E0380702D54FF4805402E0284683
:1005B00000F076FAF80516D529684FF48070886047
:1005C000B80503D5284600F076FA0CE0780502D588
:1005D00044F4005407E0380502D544F4804402E0B6
:1005E000284600F067FAF80316D529684FF48030E2
:1005F0008860B80303D5284600F05FFA0CE0780362
:1006000002D544F4004407E0380302D544F48034B2
:1006100002E0284600F050FA300707D55FEACB60C9
:1006200004D52968102044F40074C86070074FF0A6
:10063000080707D55FEA0B7004D52868C76028460D
:1006400000F072F9B00706D52868C068800702D0AC
:10065000284600F06BF9700607D55FEACA6004D53A
:100660002968102044F480640861B00607D55FEA69
:100670000A7004D528680761284600F0E1F9F00601
:1006800006D528680069800702D0284600F0D9F90D
:10069000B00308D55FEAC96005D529681020486015
:1006A000284600F0CFF9F00307D55FEA097004D5BA
:1006B00028684760284600F001FA300446D55FEA12
:1006C000497040D5F00504D55FEAC87001D044F008
:1006D0000104B00504D55FEA887001D544F0020436
:1006E000700504D55FEA487001D544F00404300574
:1006F00029D518F0700F26D008F07000402815D0CA
:1007000006DC102809D020280AD0302816D10AE0AB
:1007100050280ED0602811D10EE044F008040DE0FE
:1007200044F010040AE044F0200407E044F04004E0
:1007300004E044F0800401E044F480742868816996
:1007400021F070018161296804204860002C05D0E7
:10075000686A204368622846FFF78FFEBDE8F09F75
:1007600070B5040003D094F8200010B104E001201B
:1007700070BD204600F082F82068016821F0020177
:10078000016000F0B7FA0546052604E000F0B2FA71
:10079000401B0A2811D8206840688007F6D42068DA
:1007A000016841F00101016000F0A4FA05460BE088
:1007B00000F0A0FA401B0A2806D9606A40F4003015
:1007C000606284F82060D2E720684068C007EFD0FC
:1007D000207E0128206801683DD021F08001016061
:1007E000607E01282068016838D021F04001016056
:1007F000A07E01282068016833D021F0200101602B
:10080000E07E0128206801682ED041F010010160CF
:10081000207F01282068016829D021F008010160AB
:10082000607F01282068016824D021F00401016064
:10083000D4E902010843D4E9041211430843616872
:10084000491E08432168C86100206062012084F8C5
:100850002000002070BD41F08001C0E741F0400160
:10086000C5E741F02001CAE721F01001CFE741F0D0
:100870000801D4E741F00401D9E7000010B586B0C3
:10088000002100910191029103910068234988425F
:1008900042D12348C16941F00071C161C16901F0D1
:1008A00000710491816941F00401816180691D4CEE
:1008B00000F0040004904FF4006000906946204668
:1008C00000F01EF9A0140090022001900320039074
:1008D0006946204600F014F900221146132000F06A
:1008E00075FA132000F064FA00221146142000F07B
:1008F0006DFA142000F05CFA00221146152000F079
:1009000065FA152000F054FA00221146162000F076
:100910005DFA162000F04CFA06B010BD00640040ED
:1009200000100240000801407047000070B53E4BC7
:100930003E4A0021FFF7A2FD3C483B4D3C4902786E
:100940000020A5F140040F2A2BD2DFE802F02A088C
:100950000C1921252B3F4B53575B5F6367002089A0
:1009600040F002005DE0BFF34F8F32480168324A29
:1009700001F4E06111430160BFF34F8F00BFFDE759
:10098000C860208940F008002081288840BA07E02C
:10099000208940F0100044E0218941F020012181AC
:1009A000608170BDC860208940F04000208100F067
:1009B000A1F92063288840BAE082E08A2083208B56
:1009C0001E490860208B091D086070BD208940F019
:1009D000800020812868E97800BA20F0FF000843F1
:1009E000606270BD208940F480702081288840BA00
:1009F000E08370BD208940F4007012E0208940F44B
:100A000080600EE0208940F400600AE0208940F414
:100A1000805006E0208940F4005002E0208940F434
:100A20008040208170BD0000400000207400002044
:100A3000001001400CED00E00400FA05340800400D
:100A4000704770477047000070B5044690F820006A
:100A5000012804D0606A40F40020606218E002209F
:100A600084F820002068016821F00101016000F095
:100A700041F905460EE000BF00F03CF9401B0A2892
:100A800008D9606A40F400306062052084F82000D4
:100A9000012070BD20684068C007EDD1606270BD64
:100AA0007047000002480021C1604114C1607047D6
:100AB0000010014070477047704770477047000052
:100AC00070B5044600F016F90546601C02D00448D3
:100AD0000078044400F00EF9401BA042FAD370BD28
:100AE0004C00002070470000044910B50A6802421B
:100AF00002D00860FFF7F6FF10BD000014040140AB
:100B00002DE9F84FDFF8B891002409F1040A0AF141
:100B1000040B23460F270BF1040EC9E00125A54065
:100B20002A40AA427DD1674ED1F804C0ACEB06083A
:100B3000B44532D014DCBCF1030F3AD009DCBCF16F
:100B4000000F2AD0BCF1010F1CD0BCF1020F31D133
:100B50001DE0BCF1110F17D0BCF1120F2AD119E022
:100B6000B8F5881F19D006DCB8F5803F15D0B8F568
:100B7000801F1FD111E0B8F5001F0ED0B8F5041F7B
:100B800018D10AE0CB6815E0CB681B1D12E0CB68DA
:100B900008330FE0CB680C330CE08B682BB1012BD2
:100BA0004FF0080303D0456104E0042302E005612F
:100BB00000E00023FF2A01D8064601E000F1040608
:100BC0004FEA840501D9A5F12005D6F8008007FA7F
:100BD00005FC28EA0C0803FA05F548EA0508C6F8FA
:100BE00000804D68ED0062D5374DAE6946F00106D4
:100BF000AE61AD6924F0030605F001050095334DA3
:100C000006EB050CDCF80850A607360F07FA06F8C5
:100C100025EA0805DFF8B880404503D14FF0000809
:100C200017E044E0DFF8AC80404502D14FF0010806
:100C30000FE0DFF8A480404502D14FF0020808E041
:100C4000DFF89880404502D14FF0030801E04FF0F3
:100C5000040808FA06F848EA0508CCF808804D6848
:100C6000D9F80060ED034D4601D5164300E09643E8
:100C70002E604D68DAF80060AD03554601D5164385
:100C800000E096432E604D68DBF80060ED025D46A3
:100C900001D5164300E096432E604D68DEF80060F3
:100CA000AD02754601D5164300E096432E60641CE4
:100CB0000D682A46E5407FF431AFBDE8F88F0000AB
:100CC000000401400000111000100240000001402B
:100CD00000080140000C01400010014000140140D8
:100CE0008068084000D0012070470AB10161704758
:100CF0000904FBE701488068704700004C000020B1
:100D00000248816802781144816070474C000020DD
:100D1000074810B5016841F010010160032000F0A0
:100D200075F8002000F006F800F024F8002010BD4F
:100D30000020024070B50D4D04464FF47A712878BA
:100D4000B1FBF0F00A490968B1FBF0F000F0CCFA11
:100D500048B9102C07D200222146501E00F036F868
:100D600000206C6070BD012070BD00004C000020B0
:100D7000580000200C4808B5816941F001018161EB
:100D8000816901F001010091C16941F08051C161A7
:100D9000C06900F0805000900448416821F0E06193
:100DA00041F00071416008BD0010024000000140A8
:100DB000002809DB00F01F0201219140400980005A
:100DC00000F1E020C0F8001170470000F0B40E4BB5
:100DD0001B680C46C3F30223C3F10705042D00D999
:100DE0000425191D072901D2002300E0DB1E01267E
:100DF00006FA05F1491E214099409E40761E164094
:100E00003143F0BC01F0D7BA0CED00E0064900F028
:100E1000070208684FF6FF03184040EA0220034A21
:100E200010430860704700000CED00E00000FA0578
:100E30002DE9F0470F46050061D0434E306800F0C1
:100E40000700B84209D2306820F00700384330600C
:100E5000306800F00700B84251D128683B4C810748
:100E600012D5400703D5606840F4E06060602878E0
:100E7000000703D5606840F4605060606068A9684E
:100E800020F0F000084360602878C00728D0686828
:100E9000012810D02168022810D0890700292EDAF5
:100EA000616821F0030101436160FFF723FF804681
:100EB00041F288390DE021688903EFE78901EDE708
:100EC000FFF718FFA0EB0801494502D90320BDE850
:100ED000F0876068696800F00C00B0EB810FEFD11B
:100EE000306800F00700B8420BD9306820F00700E6
:100EF00038433060306800F00700B84201D001206C
:100F0000E5E72878400705D56068E96820F4E060E7
:100F1000084360602878000706D56068296920F4D6
:100F2000605040EAC100606000F018F86168084A4B
:100F3000C1F30311515CC8400649086006480068C7
:100F4000FFF7F8FE0020C2E7002002400010024038
:100F50009C240008580000205000002012A185B0F9
:100F60000FC98DE80F0014A0144A0068049051685E
:100F7000134801F00C03042B10D0082B0ED1C1F341
:100F80008343C9031DF803000AD5516804AAC1F3BD
:100F90004041515C0A4A5043B0FBF1F005B0704744
:100FA00008494843FAE70000020304050607080958
:100FB0000A0B0C0D0E0F1010010200000010024071
:100FC00000127A0000093D002DE9F84F040070D0AE
:100FD0002078C04DC00749D06868C0F3810001285F
:100FE00007D06868C0F38100022809D16868C0038F
:100FF00006D52868800339D560680028E7D035E039
:101000006068B0F5803F0BD010B1B0F5A02F11D0C3
:10101000286820F480302860286820F4802002E0CE
:10102000286840F480302860606890B1FFF762FE65
:1010300006460AE0286840F480202860F0E700BFF8
:10104000FFF758FE801B642873D828688003F7D503
:101050000CE0FFF74FFE064605E000BFFFF74AFE33
:10106000801B6428F0D828688003F7D420789A4E33
:1010700080074FF001094FF0000839D5686810F07B
:101080000C0F07D06868C0F38100022809D1686896
:10109000C00306D42868800714D52069012808D128
:1010A00010E02069B0B1C6F80090FFF723FE0746B4
:1010B00005E00AE1FFF71EFEC01B0228C4D828681D
:1010C0008007F7D52868616920F0F80040EAC10080
:1010D00028600DE0C6F80080FFF70CFE074604E02C
:1010E000FFF708FEC01B022823D828688007F7D422
:1010F000207800072CD57948A169D9B1C0F80090B3
:10110000FFF7F8FD074604E0FFF7F4FDC01B0228D7
:101110000FD8686A8007F7D571484FF4FA51006814
:10112000B0FBF1F0009000BF0098411E0091FAD290
:101130000EE080E0C0F80080FFF7DCFD074604E029
:10114000FFF7D8FDC01B022875D8686A8007F7D45E
:101150002078400760D5E8690027C00008D4E86916
:1011600040F08050E861E869012700F0805000906D
:101170005C480168C90513D40168834641F4807155
:101180000160FFF7B7FD824606E000BFFFF7B2FD42
:10119000A0EB0A0064284ED8DBF80000C005F5D5A6
:1011A000E06801280AD008B1052813D0286A20F089
:1011B00001002862286A20F0040002E0286A40F05A
:1011C00001002862E06841F2883B98B1FFF792FD88
:1011D00082460BE0286A40F004002862EEE700BF78
:1011E000FFF788FDA0EB0A0159455AD8286A800705
:1011F000F6D50CE0FFF77EFD824605E0FFF77AFDAD
:10120000A0EB0A0159454CD8286A8007F6D41FB1D3
:10121000E86920F08050E861E06988B36968C1F34B
:101220008101022944D00228C6F8608004D0FFF76B
:1012300061FD044638E034E0FFF75CFD074604E05A
:10124000FFF758FDC01B02282BD828688001F7D46F
:10125000206AB0F5803F05D16868A16820F40030AD
:1012600008436860D4E908010843696821F47411EF
:1012700008436860C6F86090FFF73CFD044606E04E
:1012800025E000BFFFF736FD001B022809D82868BB
:101290008001F7D51BE000BFFFF72CFD001B0228E3
:1012A00002D90320BDE8F88F28688001F4D40EE04D
:1012B0000128F7D06868226A00F48031914204D195
:1012C000616A00F47010884201D00120EAE7002032
:1012D000E8E7000000100240000042428004424261
:1012E000580000200070004010B5401EB0F1807F13
:1012F00001D3012010BD4FF0E02460610F21601781
:1013000001F059F80020A06107202061002010BDE5
:101310007047704770B590F83C20012A19D001241D
:1013200000F83C4F0222427050F83C3C5A689D68DD
:1013300022F070060A684968324325F08005294387
:101340005A6050F83C2C91604470002101700846AE
:1013500070BD022070BD10B5040003D094F83D00AC
:1013600010B107E0012010BD002084F83C002046A9
:1013700000F00CF8022084F83D00211D206800F0E8
:10138000F1FE012084F83D00002010BD08B5006882
:101390000B49884212D10B48C16941F00401C16177
:1013A000C069002200F00400009011461E20FFF7E3
:1013B0000DFDBDE808401E20FFF7FABC08BD000087
:1013C000000800400010024070B5044690F83C0050
:1013D000012817D0012584F83C50022084F83D00F4
:1013E0002068826822F0770222F47F4282600868D7
:1013F000502830D00DDC20284DD005DC98B31028C3
:101400003BD148E0022070BD302844D0402834D180
:1014100039E0602828D0702806D0B0F5805F2CD045
:10142000B0F5005F29D10AE0CB68D1E9012120683D
:1014300000F0DBFE2068816841F0770109E0CB68AD
:10144000D1E90121206800F0D0FE2068816841F4D4
:101450008041816011E0CA684968206800F07AFF25
:101460005021206807E016E0CA684968206800F04B
:1014700082FF6021206800F0C2FE84F83D50002009
:1014800084F83C0070BDCA684968206800F062FFBB
:1014900040212068EFE7226801461046EBE77047DD
:1014A00070B50446006801694FF00005C94389071B
:1014B00015D4C168C943890711D4E91E016101200F
:1014C0002077206880698007204602D0FFF7E7FF79
:1014D00004E000F0C9F8204600F04BF925772068B9
:1014E0000169C943490717D4C168C943490713D4DF
:1014F0006FF004010161022020772068806910F4F8
:10150000407F204602D0FFF7CAFF04E000F0ACF8AD
:10151000204600F02EF9257720680169C9430907A4
:1015200016D4C168C943090712D46FF008010161DC
:10153000042020772068C0698007204602D0FFF78A
:10154000AEFF04E000F090F8204600F012F9257795
:1015500020680169C943C90617D4C168C943C906CF
:1015600013D46FF010010161082020772068C06952
:1015700010F4407F204602D0FFF791FF04E000F016
:1015800073F8204600F0F5F8257720680169C94313
:10159000C90708D1C168C943C90704D1891E0161BF
:1015A000204600F003F920680169C943090609D4FF
:1015B000C168C943090605D46FF080010161204666
:1015C000FFF7A6FE20680169C943490609D4C1682E
:1015D000C943490605D46FF040010161204600F07F
:1015E000E6F820680169C94389060BD4C168C9437C
:1015F000890607D46FF0200101612046BDE87040E4
:10160000FFF787BE70BD000030B585B000210091A6
:101610000191029103910068104988421BD1104842
:10162000816941F0080181618069022400F00800AD
:1016300004904020CDE9000403200A4D0390694640
:101640002846FFF75DFA8020CDE900046946284668
:101650000394FFF755FA05B030BD000000080040C4
:1016600000100240000C0140704770B5044690F82D
:101670003C000D4601280DD0012684F83C60022074
:1016800084F83D0042B1042A18D0082A2AD00C2A36
:101690004DD139E0022070BD206800F0B9FD20680E
:1016A000816941F0080181612068816921F00401AC
:1016B0008161206881692A69114311E0206800F086
:1016C000CFFD2068816941F40061816120688169F2
:1016D00021F480618161206881692A6941EA0221DF
:1016E000816124E0206800F0E7FD2068C16941F0D5
:1016F0000801C1612068C16921F00401C16120684D
:10170000C1692A69114311E0206800F001FE2068D8
:10171000C16941F40061C1612068C16921F480613F
:10172000C1612068C1692A6941EA0221C16184F866
:101730003D60002084F83C0070BD10B5040003D06B
:1017400094F83D0010B107E0012010BD002084F89E
:101750003C00204600F00CF8022084F83D00211DDA
:10176000206800F0FFFC012084F83D00002010BD3F
:101770007047704710B504460068012200F028FD4C
:1017800009492068884203D1416C41F40041416419
:101790002068816801F00701062903D0016841F043
:1017A00001010160002010BD002C0140704770470E
:1017B000FEE7000030B51E488BB01C490160502187
:1017C0000024C0E901144FF08071C1604FF4402142
:1017D00001614FF4801141610476447684760125DD
:1017E000C57604774477FEF7BBFF0594069468033B
:1017F000CDE9000407944FF4F03002904FF6FF70EB
:10180000CDE903040E20CDE9085069460848FEF7EB
:10181000BDFD0748FFF718F902210548FEF740FD16
:1018200003483438846004750BB030BD0064004058
:10183000900000202DE9F04786B000264948009628
:10184000019602960396816941F0100181618169D8
:1018500001F010010491816941F0200181618169E9
:1018600001F020010491816941F0040181618169E5
:1018700001F004010491816941F0080181618069EE
:10188000DFF8E48000F008004FF4005404900022D8
:1018900021464046FFF729FADFF8D0A000224FF298
:1018A00010015046FFF721FADFF8C4904FF4E067CB
:1018B000002239464846FFF718FA0125CDE90045D0
:1018C00002240294694640460394FFF719F94FF445
:1018D0004040CDE90006694602944046FFF710F902
:1018E00048F2FF00CDE90006694602944846FFF73A
:1018F00007F940F20B30CDE90006694602945046E4
:10190000FFF7FEF838010090CDE9015469465046D2
:101910000394FFF7F5F848F21000CDE90005CDE992
:10192000025469465046FFF7EBF80097CDE90154A1
:10193000694648460394FFF7E3F8202000900D48DD
:10194000CDE9010469465046FFF7DAF80022114656
:101950001720FFF73BFA1720FFF72AFA06B0BDE879
:10196000F08700000010024000100140000C014010
:10197000000801400000211010B58EB0002407942B
:10198000089409940A940B941C2168460C94FEF761
:10199000D0FB1948174901607F21C0E9011442F2C8
:1019A0001071C0E903148461FFF7D5FC4FF4805037
:1019B000079007A91048FFF707FD0F48FFF7BDFE86
:1019C0000B940BA90C480C94FFF7A4FC6020CDE904
:1019D000000402940022694607480494FFF745FE7C
:1019E000042269460448FFF740FE0348FFF70CFE57
:1019F0000EB010BD00080040B8000020FEE7000057
:101A00002DE9F047584CB4F90C00B4F90A1088429B
:101A10007ED0564F002210213846FFF766F94FF46A
:101A2000004A002251463846FFF75FF9B4F90A0030
:101A3000B4F90C207914904207DAB4F90C00B4F927
:101A40000A20801A0022606306E0B4F90A00B4F9A3
:101A50000C20801A012260633846FFF746F9444E95
:101A6000706800254FF48049B0F57A7F08D9207856
:101A7000012805D1002249463846FFF736F925707E
:101A8000D4E90D014FF00108B1EB500F24D270687A
:101A9000A16A884220D9012249463846FFF725F934
:101AA000756084F80080A06B401CA063616AE289C5
:101AB0005143E26A00FB0020B1FBF0F0616A084488
:101AC000A062B4F90A00B4F90C108842A08A01DDC2
:101AD000401C00E0401EA082D4E90D01B1EB500F84
:101AE00028D37068A16A884224D901224946384621
:101AF000FFF7FBF8756084F80080A06B401CA063C2
:101B0000616B081AE16A00FB0011606AE28900E07B
:101B100024E05043B0FBF1F0616A0844A062B4F9DC
:101B20000A00B4F90C108842A08A01DD401C00E0D4
:101B3000401EA082D4E90D01814212D16089A081AA
:101B40006563A5632570A562012210213846FFF761
:101B5000CCF8012251463846FFF7C7F80020BDE80F
:101B6000F0870120FBE7000000000020000C01408E
:101B7000001000E0704770472DE9F84FFE4C2089B7
:101B8000FE4FDFF8FCB3FF4D80074FF000062DD568
:101B90004FF4004138460096FFF7A2F88DF8000098
:101BA0004FF480413846FFF79BF88DF80100791516
:101BB0005846FFF795F88DF80200B9155846FFF71B
:101BC0008FF88DF8030040F2013028600420C5E949
:101BD0000360294604F120036A4601F13400FEF750
:101BE00071FB18B9208920F00200208120890007AC
:101BF00018D5B4F90A00B4F90C10884212D14FF488
:101C00000058C7F80C80B4F90C00022340F20332EC
:101C1000C117FEF7B9FA28B9208920F00800208101
:101C2000C7F80C802089DFF86093C0064FF0010AE6
:101C30007ED5B4F90C00DFF8548300283BDDFFF7B4
:101C400059F8216B884236D920214846FFF748F8D9
:101C500058B9607848B900234FF4427218461946C3
:101C6000FEF792FA84F801A0FE60208B618B0A30A7
:101C7000884211D36670208920F010002081002353
:101C800040F2093218461946FEF77EFAE18AC8F892
:101C90000010E18AC8F80010FFF72CF8001D20633F
:101CA000208B401C2083218BC8F80010208BB74963
:101CB000091DC01E0860B4F90C0000283CDCFFF7C9
:101CC00019F8216B884237D910214846FFF708F8E8
:101CD00050B9607840B900234FF442721846194653
:101CE000FEF752FA84F801A0208B618B0A308842FB
:101CF00011D36670208920F010002081002340F26B
:101D0000093218461946FEF73FFAE18AC8F8001072
:101D1000E18AC8F80010FEF7EDFF001D2063208B5C
:101D2000401C2083208BC01EC8F80000218B00E0DF
:101D300032E09648001D016002215846FEF7D0FFB0
:101D40004FF4417890B101215846FEF7C9FF0128B0
:101D50000CD14003F860208B022342463146FEF747
:101D600013FA208920F010002081667080214846F7
:101D7000FEF7B6FF80B140214846FEF7B1FF0128CB
:101D80000AD1208B022342463146FEF7FDF9208915
:101D900020F0100020816670A089A046022408BBB4
:101DA00008214846FEF79CFF78B904214846FEF713
:101DB00097FF50B902214846FEF792FF28B901214A
:101DC0004846FEF78DFF01280CD140F20A3028600A
:101DD000694B6C49C5E903462033002201F1340008
:101DE000FEF770FAB8F8080080062AD5B8F80C009B
:101DF00038BB08214846FEF773FF70B904214846F6
:101E0000FEF76EFF48B902214846FEF769FF20B988
:101E100001214846FEF764FF98B940F2053028607A
:101E2000554B5849C5E903462033002201F13400DF
:101E3000FEF748FA28B9B8F8081021F02001A8F8F0
:101E40000810B8F80800400627D5FEF753FFD8F869
:101E5000301001F52F7188421FD94FF40050F860FF
:101E60000096B8F81800000A8DF80000B8F81800BD
:101E70008DF8010040F2063028603F4B4149C5E92A
:101E8000036420336A4601F13400FEF71BFAB8F808
:101E9000080020F04000A8F80800B8F808004746FD
:101EA000C00513D5F88B88B941F207302860324B52
:101EB0003449C5E903462033002201F13400FEF71E
:101EC00001FA18B9388920F4807038810221584607
:101ED000FEF706FF48B101215846FEF701FF012831
:101EE00003D187F802A087F803A080214846FEF7B7
:101EF000F7FE48B140214846FEF7F2FE012803D123
:101F000087F804A087F805A002215846FEF7E8FEEE
:101F10004FF44378B8B101215846FEF7E1FE90B97D
:101F2000B87880B1F87801280DD1BE70FE70C5F880
:101F30000080114B1349C5E903462033002201F10B
:101F40003400FEF7BFF980214846FEF7C9FE00289D
:101F500028D040214846FEF7C3FE002822D1387918
:101F600000281FD0787901281CD13E717E71C5F8F8
:101F70000080C5E903460BE000000020001001408E
:101F8000000C01405C0000200008014034080040C3
:101F900001B00649BDE8F04F034B002201F13400C7
:101FA000FEF790B9BDE8F88F200000205C0000200B
:101FB000704700002DE9F0473E4C2089400476D55B
:101FC000B4F90A0001273C4E4FF0000844F62065A2
:101FD00040F20E39002832DD20213046FEF780FE27
:101FE000012804D1E06BA84201D2401CE06320210B
:101FF0003046FEF775FE0028E06B02D178B1401E36
:10200000E063A84209D1A07938B9A771B4F91400E6
:1020100002234A46C117FEF7B7F8E06B78B9A079FA
:1020200001280CD184F80680B4F9140002234A4632
:10203000C117FEF7A9F8208920F480402081B4F967
:102040000A00002833DA20213046FEF749FE012835
:1020500004D1E06BA84201D2401CE063202130464D
:10206000FEF73EFE0028E06B02D180B1401EE06327
:10207000A84209D1A07938B9A771B4F91400022394
:102080004A46C117FEF780F8E06B00280FD1A0790F
:1020900001280CD184F80680B4F9140002234A46C2
:1020A000C117FEF771F8208920F480402081BDE837
:1020B000F08700000000002000080140FEF720BE6D
:1020C00030B58FB028216846FEF733F814210AA8EE
:1020D000FEF72FF801210804CDE900100024029436
:1020E00002250491CDE907504FF4C01009906846CD
:1020F000FEF76AFF0F20CDE90A056802CDE90C4022
:1021000002210AA80E94FEF793FE0FB030BD000026
:102110000D48016841F00101016041680B4A11401E
:10212000416001680A4A11400160016821F4802180
:102130000160416821F4FE0141604FF41F0181609C
:102140000449C00308607047001002400000FFF817
:10215000FFFFF6FE08ED00E00148FFF7A1B900001F
:10216000B8000020F0B50268164B174C174D4FF021
:102170008047984205D0B84203D0A04201D0A8427F
:1021800003D122F070064A683243984205D0B84223
:1021900003D0A04201D0A84203D122F44074CA68FF
:1021A00022434C6922F08002224302608A68C262A4
:1021B0000A688262984201D1096901630121416183
:1021C000F0BD0000002C0140000400400008004069
:1021D00010B501F01F030121046A99408C43046289
:1021E000016A9A401143016210BD10B5846842EA49
:1021F000032224F47F440A432243826010BD826894
:1022000022F070020A4342F007018160704700002B
:1022100030B5026A22F001020262026A43688469F0
:1022200024F073050C682C4322F002058A682A43C7
:102230000A4DA8420BD122F00805CA6823F4407366
:102240002A434D6922F004021D438B692B434360EE
:10225000846149684163026230BD0000002C014086
:1022600030B5026A22F010020262026A4368846991
:102270000D6824F4E64444EA05248D6822F0200227
:1022800042EA05120B4DA8420ED1CD6822F0800221
:1022900042EA05124D6923F4406343EA85038D69E0
:1022A00022F0400243EA8503436084614968816308
:1022B000026230BD002C014030B5026A22F4807207
:1022C0000262036A4268C46923F4007324F0730550
:1022D0000C682C438D6843EA05230C4DA8420ED1AF
:1022E000CD6823F4006343EA05234D6922F440528C
:1022F00042EA05128D6923F4806342EA05124260C6
:10230000C4614968C163036230BD0000002C014014
:1023100030B5026A22F480520262046A4268C369DC
:102320000D6823F4E64343EA05238D6824F4005442
:1023300044EA0534064DA84204D14D6922F4804296
:1023400042EA85124260C36149680164046230BD9B
:10235000002C014010B5036A046A24F001040462F1
:10236000846924F0F00444EA021423F00A020A43C8
:102370008461026210BD10B5036A23F0100303628A
:102380008369046A23F4704343EA023224F0A00311
:1023900043EA01118261016210BD00000148FEF7AD
:1023A000E1B80000900000200148FEF7DBB8000013
:1023B00090000020FEE70907090E002804DB00F169
:1023C000E02080F80014704700F00F0000F1E020DA
:1023D00080F8141D704702E008C8121F08C1002AC7
:1023E000FAD170477047002001E001C1121F002A96
:1023F000FBD170472348016841F080710160224899
:10240000016841F00101016000244460FEF780FC96
:10241000FFF756FEFFF70EFAFFF7CCF9FFF7ACFA1D
:102420001A4D012210212846FEF75FFC0122D1033C
:102430002846FEF75AFC164DEC604FF4FA7420461D
:10244000FEF73EFB6814E8604FF49670FEF738FB29
:1024500000211048FFF78EF904210E48FFF78AF992
:102460000D4840F252310160001D01602046FEF728
:1024700027FB00BFFFF7C4FAFFF77EFBFFF79AFDCB
:10248000F8E70000FCED00E0001000E0000C014067
:1024900000100140B8000020340800400000000097
:1024A000000000000102030406070809CC2400080C
:1024B000000000205C000000D6230008282500084A
:1024C0005C0000209C040000E623000800000000DF
:1024D000000000000000000000001027D007D00717
:1024E000000000000000520358020000000000003D
:1024F000409C0000000000005802000000000000A6
:1025000000000000000000000000000000000000CB
:1025100000000000000000000100000010000000AA
:08252000000000000024F4009B
:04000005080000ED02
:00000001FF
