:020000040800F2
:10000000E804002001010008B91B00087D18000861
:10001000A51A00086D010008511F0008000000002B
:10002000000000000000000000000000651C000847
:10003000E904000800000000BB1B0008671C000862
:100040001B0100081B0100081B0100081B01000820
:100050001B0100081B0100081B0100081B01000810
:100060001B0100081B0100081B0100081B01000800
:100070001B0100081B0100081B0100081B010008F0
:100080001B0100081B0100081B010008391F0008A4
:10009000451F0008710100087D0100081B010008D0
:1000A0001B0100081B0100081B0100081B010008C0
:1000B0001B0100081B0100081B0100081B010008B0
:1000C0001B0100081B0100081B0100081B010008A0
:1000D0001B0100081B0100081B0100081B01000890
:1000E000ED0400081B0100081B010008DFF80CD01C
:1000F00000F02AF800480047911F0008E80400209B
:100100000648804706480047FEE7FEE7FEE7FEE7B1
:10011000FEE7FEE7FEE7FEE7FEE7FEE7B91C0008A4
:10012000ED000008D2B201E000F8012B491EFBD21D
:1001300070470022F6E710B513460A4604461946F2
:10014000FFF7F0FF204610BD064C074D06E0E068C3
:1001500040F0010394E8070098471034AC42F6D30E
:10016000FFF7C8FF3820000858200008FEE700000D
:10017000014800F053BB000048000020014800F097
:100180004DBB0000480000202DE9F05FA34DA8887A
:10019000800770D5A24E00273A464FF48061304662
:1001A00000F0DAFEDFF87CB24FF48078002241469E
:1001B000584600F0D1FEC246DFF86C927415D8465E
:1001C00010E001222146404600F0C6FE012000F06A
:1001D000A7FD00222146404600F0BEFE012000F0AF
:1001E0009FFD7F1C2146304600F0AAFE012807D063
:1001F0005146304600F0A4FE012801D04F45E0D31F
:100200005146874800F09CFE4FF0010B01282BD18E
:10021000002028705A4685F801B05146404600F04B
:100220009BFE0026374611E0012221464046761CFF
:100230007F1C00F091FE012000F072FD002221469B
:10024000404600F089FE012000F06AFD2146744816
:1002500000F076FE012801D04E45E5D321467048D6
:1002600000F06EFE012807D04FF400716C4800F0DA
:1002700067FE01284AD080E0A9462A7851464646C2
:10028000404600F069FE0025DFF894A1B04611E079
:100290006D1CADB201223146404600F05DFE0120EA
:1002A00000F03EFD00223146404600F055FE0120A0
:1002B00000F036FD26462146504600F041FE01285A
:1002C000E6D0C2460024B04601224146564650467A
:1002D00000F042FE012000F023FD0022414630469E
:1002E00000F03AFE012000F01BFD641CE4B2282C53
:1002F000EAD9781B28384C4600F11401C9F80800E7
:100300007EE0A08820F00200A08084E05A4685F8B4
:1003100000B04FF0000B85F801B0574651464046FB
:1003200000F01AFEB946002447462646DFF8F0A042
:100330004FF4007811E0012241463846641C761CD7
:1003400000F00AFE012000F0EBFC00224146384696
:1003500000F002FE012000F0E3FC4946504600F0A8
:10036000EFFD012802D030488442E4D34C46494690
:10037000504600F0E5FD012802D00120BDE8F09FC5
:10038000A9466A782146384600F0E6FD0025A246D7
:1003900012E06D1CADB2012244464146384600F0E1
:1003A000DBFD012000F0BCFC00222146384600F0B5
:1003B000D3FD012000F0B4FC5146194800F0C0FD07
:1003C0000128E6D0BA460024474601223946D046E5
:1003D000504600F0C1FD012000F0A2FC0022394689
:1003E000404600F0B9FD012000F09AFC641CE4B224
:1003F000142CEAD3701B28384C465946C9F808001B
:100400002161E160042340F20172002100F00EF846
:1004100000283FF476AF0020B0E700000000002085
:1004200000080140000C0140FFFF02002DE9F84FD9
:1004300004460D46DFF8A8801F4616464FF0000917
:100440004FF0020A28430CD1C8E903A94146254BC5
:100450000022A1F16800C8F8006000F08FF80028C1
:1004600025D0E0B2012F08D0210A41EA0561CAB2C5
:10047000022F0AD0042F1CD018E08DF80000C8F815
:100480000C900121C8F8006026E08DF800208DF85E
:100490000100C8E9039AC8F800601149114B6A4687
:1004A000A1F1680000F06AF8002800D00120BDE842
:1004B000F88F210E41EA05218DF80010210C41EA48
:1004C00005418DF801108DF802208DF80300C8F861
:1004D0000C900421C8F80060C8F81010DDE7000097
:1004E000B0000020280000207047000038B54FF40D
:1004F00000442146134800F023FDF0B900F032FD1E
:10050000114D42F2107229681144884215D90F4AE0
:1005100040F205706B4610600220D0600020106130
:1005200002460A490A4800F029F800F01BFD28603D
:100530000848018841F080010180204600F004FC59
:1005400038BD0000000C014034000020B000002045
:10055000480000200400002090F82020012A07D045
:10056000022A05D0416A41F480214162012070478E
:10057000006842690A43426100207047F0B590F874
:1005800020500468A468012D05D0022D03D0416AD3
:1005900041F4802153E014F0406F01D1E5004BD5C8
:1005A000C4F30164022C03D9416A41F4000146E01E
:1005B0000125A5401D608D684FF4C0739DB1CE68C4
:1005C00035434E6845EAC605066803EB0417F55146
:1005D0004FF4C275076805EB04150E697E51097D5D
:1005E000012905D009E00E88CD6845EA4655EBE7BC
:1005F00001684E5946F480764E511179D2F8055073
:100600004FF4C67641EA0525016806EB04168D51C4
:100610001178D2F801204FF4C47541EA0221026832
:1006200005EB04155151006803EB0411425842F0E8
:10063000010242500020F0BD416A41F400114162C4
:100640000120F0BD10B590F820300268012B07D0D2
:10065000022B05D0416A41F480214162012010BD86
:10066000D2F8000240F00100C2F80002087D00F05C
:100670001F0301209840D2F81C328343C2F81C3279
:10068000CB69B3B9D2F80C328343C2F80C328C89EF
:100690004B6864F31F434C6902EBC404C4F8403256
:1006A0000C890B6864F31F434C6902EBC404C4F863
:1006B0004432CB69012B16D1D2F80C320343C2F875
:1006C0000C320C884B6864F31F434C6902EBC40482
:1006D000C4F840320C89CB6864F31F434C6902EBC9
:1006E000C404C4F844328B69002BD2F804320FD012
:1006F00053EA0003C2F804320B69002BD2F814321B
:1007000008D00343C2F81432096A012904D008E072
:100710008343EFE78343F5E7D2F81C120143C2F8A5
:100720001C12D2F8000220F00100C2F800020020E2
:1007300010BD704730B590F82040012C05D0022C38
:1007400003D0416A41F480215DE00468002955D05E
:100750002469A40754D04FF4D874056804EB01143D
:100760002D5915F00405956005682D594ED0ED08FA
:10077000556005682C5904F00204D4604FF4DA7413
:10078000056804EB01142D5905F00F051561056886
:100790002D59C5F30725956105682C59240C546122
:1007A0004FF4DC72046802EB0112A4581C70046858
:1007B000A458240A5C700468A458240C9C70046833
:1007C000A258120EDA704FF4DE72046802EB0112C6
:1007D000A4581C710468A458240A5C710468A458C5
:1007E000240C9C710468A258120EDA71006881B161
:1007F000016941F020010161002030BDE468A8E7F3
:10080000416A41F400114162012030BD6D0D156057
:10081000AFE7C16841F02001C160EDE72DE9F05F6D
:100820000546006800244669D0F804908768D0F82F
:100830000CB0D0F810A0D0F81880F10748D0F90714
:1008400014D001218160B80703D5284600F05AFA78
:100850000CE0780702D54FF4006407E0380702D5B2
:100860004FF4805402E0284600F04AFAF80516D505
:1008700029684FF480708860B80503D5284600F0D9
:100880004AFA0CE0780502D544F4005407E0380534
:1008900002D544F4804402E0284600F03BFAF80315
:1008A00016D529684FF480308860B80303D52846F0
:1008B00000F033FA0CE0780302D544F4004407E07A
:1008C000380302D544F4803402E0284600F024FACC
:1008D000300707D55FEACB6004D52968102044F4BF
:1008E0000074C86070074FF0080707D55FEA0B7007
:1008F00004D52868C760284600F072F9B00706D50D
:100900002868C068800702D0284600F06BF970069E
:1009100007D55FEACA6004D52968102044F48064D2
:100920000861B00607D55FEA0A7004D52868076138
:10093000284600F0B5F9F00606D52868006980075A
:1009400002D0284600F0ADF9B00308D55FEAC960CF
:1009500005D5296810204860284600F0A3F9F00367
:1009600007D55FEA097004D528684760284600F07B
:10097000D5F9300446D55FEA497040D5F00504D575
:100980005FEAC87001D044F00104B00504D55FEA05
:10099000887001D544F00204700504D55FEA487000
:1009A00001D544F00404300529D518F0700F26D085
:1009B00008F07000402815D006DC102809D0202847
:1009C0000AD0302816D10AE050280ED0602811D164
:1009D0000EE044F008040DE044F010040AE044F096
:1009E000200407E044F0400404E044F0800401E007
:1009F00044F480742868816921F07001816129685C
:100A000004204860002C05D0686A204368622846AC
:100A1000FFF78FFEBDE8F09F70B5040003D094F897
:100A2000200010B104E0012070BD204600F082F8E3
:100A30002068016821F00201016000F093FA054688
:100A4000052604E000F08EFA401B0A2811D8206821
:100A500040688007F6D42068016841F00101016018
:100A600000F080FA05460BE000F07CFA401B0A28F3
:100A700006D9606A40F40030606284F82060D2E7F2
:100A800020684068C007EFD0207E012820680168F8
:100A90003DD021F080010160607E0128206801685E
:100AA00038D021F040010160A07E01282068016853
:100AB00033D021F020010160E07E01282068016828
:100AC0002ED041F010010160207F012820680168CC
:100AD00029D021F008010160607F012820680168A9
:100AE00024D021F004010160D4E902010843D4E9D3
:100AF0000412114308436168491E08432168C86114
:100B000000206062012084F82000002070BD41F0C8
:100B10008001C0E741F04001C5E741F02001CAE78C
:100B200021F01001CFE741F00801D4E741F00401C2
:100B3000D9E7000010B586B0002100910191029123
:100B4000039100682349884242D12348C16941F09A
:100B50000071C161C16901F000710491816941F0C6
:100B60000401816180691D4C00F0040004904FF481
:100B7000006000906946204600F0F2F8A014009052
:100B800002200190032003906946204600F0E8F817
:100B900000221146132000F051FA132000F040FA11
:100BA00000221146142000F049FA142000F038FA0F
:100BB00000221146152000F041FA152000F030FA0D
:100BC00000221146162000F039FA162000F028FA0B
:100BD00006B010BD00640040001002400008014053
:100BE0007047000010B5294B294A0021FFF7A2FDEC
:100BF000274826490278A1F12C000A2A19D2DFE8F9
:100C000002F01805090D191D27343941818841F07A
:100C100002012DE0818841F0040129E0828842F040
:100C2000080282800A68C97812BA22F0FF020A43D9
:100C3000C26010BD818841F0100119E04FF0804082
:100C40000A7842634A78826388781249086010BD46
:100C5000BFF34F8F10480168104A01F4E06111435F
:100C60000160BFF34F8F00BFFDE7818841F0800135
:100C7000818010BD0A68C97812BA22F0FF020A43C7
:100C8000426110BD098849BAC18010BD2C00002006
:100C9000C80000203C0400400CED00E00400FA0510
:100CA000704770477047000070B5044690F8200008
:100CB000012804D0606A40F40020606218E002203D
:100CC00084F820002068016821F00101016000F033
:100CD00049F905460EE000BF00F044F9401B0A2820
:100CE00008D9606A40F400306062052084F8200072
:100CF000012070BD20684068C007EDD1606270BD02
:100D00007047000002480021C1604114C160704773
:100D100000100140704770477047704770470000EF
:100D200070B5044600F01EF90546601C02D0044868
:100D30000078044400F016F9401BA042FAD370BDBD
:100D40003800002070470000044910B50A680242CC
:100D500002D00860FFF7F6FF10BD00001404014048
:100D60002DE9F84FDFF8B891002409F1040A0AF1DF
:100D7000040B23460F270BF1040EC9E00125A54003
:100D80002A40AA427DD1674ED1F804C0ACEB0608D8
:100D9000B44532D014DCBCF1030F3AD009DCBCF10D
:100DA000000F2AD0BCF1010F1CD0BCF1020F31D1D1
:100DB0001DE0BCF1110F17D0BCF1120F2AD119E0C0
:100DC000B8F5881F19D006DCB8F5803F15D0B8F506
:100DD000801F1FD111E0B8F5001F0ED0B8F5041F19
:100DE00018D10AE0CB6815E0CB681B1D12E0CB6878
:100DF00008330FE0CB680C330CE08B682BB1012B70
:100E00004FF0080303D0456104E0042302E00561CC
:100E100000E00023FF2A01D8064601E000F10406A5
:100E20004FEA840501D9A5F12005D6F8008007FA1C
:100E300005FC28EA0C0803FA05F548EA0508C6F897
:100E400000804D68ED0062D5374DAE6946F0010671
:100E5000AE61AD6924F0030605F001050095334D40
:100E600006EB050CDCF80850A607360F07FA06F863
:100E700025EA0805DFF8B880404503D14FF00008A7
:100E800017E044E0DFF8AC80404502D14FF00108A4
:100E90000FE0DFF8A480404502D14FF0020808E0DF
:100EA000DFF89880404502D14FF0030801E04FF091
:100EB000040808FA06F848EA0508CCF808804D68E6
:100EC000D9F80060ED034D4601D5164300E0964386
:100ED0002E604D68DAF80060AD03554601D5164323
:100EE00000E096432E604D68DBF80060ED025D4641
:100EF00001D5164300E096432E604D68DEF8006091
:100F0000AD02754601D5164300E096432E60641C81
:100F10000D682A46E5407FF431AFBDE8F88F000048
:100F200000040140000011100010024000000140C8
:100F300000080140000C0140001001400014014075
:100F40008068084000D001207047C2680A4201D082
:100F500041617047016170470AB10161704709043E
:100F6000FBE700000148806870470000380000205F
:100F7000024881680278114481607047380000207F
:100F8000074810B5016841F010010160032000F02E
:100F900075F8002000F006F800F024F8002010BDDD
:100FA0000020024070B50D4D04464FF47A71287848
:100FB000B1FBF0F00A490968B1FBF0F000F0CCFA9F
:100FC00048B9102C07D200222146501E00F036F8F6
:100FD00000206C6070BD012070BD00003800002052
:100FE000440000200C4808B5816941F0010181618D
:100FF000816901F001010091C16941F08051C16135
:10100000C06900F0805000900448416821F0E06120
:1010100041F00071416008BD001002400000014035
:10102000002809DB00F01F020121914040098000E7
:1010300000F1E020C0F8001170470000F0B40E4B42
:101040001B680C46C3F30223C3F10705042D00D926
:101050000425191D072901D2002300E0DB1E01260B
:1010600006FA05F1491E214099409E40761E164021
:101070003143F0BC00F06DBF0CED00E0064900F01C
:10108000070208684FF6FF03184040EA0220034AAF
:1010900010430860704700000CED00E00000FA0506
:1010A0002DE9F0470F46050061D0434E306800F04F
:1010B0000700B84209D2306820F00700384330609A
:1010C000306800F00700B84251D128683B4C8107D6
:1010D00012D5400703D5606840F4E060606028786E
:1010E000000703D5606840F4605060606068A968DC
:1010F00020F0F000084360602878C00728D06868B6
:10110000012810D02168022810D0890700292EDA82
:10111000616821F0030101436160FFF723FF80460E
:1011200041F288390DE021688903EFE78901EDE795
:10113000FFF718FFA0EB0801494502D90320BDE8DD
:10114000F0876068696800F00C00B0EB810FEFD1A8
:10115000306800F00700B8420BD9306820F0070073
:1011600038433060306800F00700B84201D00120F9
:10117000E5E72878400705D56068E96820F4E06075
:10118000084360602878000706D56068296920F464
:10119000605040EAC100606000F018F86168084AD9
:1011A000C1F30311515CC840064908600648006855
:1011B000FFF7F8FE0020C2E70020024000100240C6
:1011C00028200008440000203C00002012A185B027
:1011D0000FC98DE80F0014A0144A006804905168EC
:1011E000134801F00C03042B10D0082B0ED1C1F3CF
:1011F0008343C9031DF803000AD5516804AAC1F34B
:101200004041515C0A4A5043B0FBF1F005B07047D1
:1012100008494843FAE700000203040506070809E5
:101220000A0B0C0D0E0F10100102000000100240FE
:1012300000127A0000093D002DE9F84F040070D03B
:101240002078C04DC00749D06868C0F381000128EC
:1012500007D06868C0F38100022809D16868C0031C
:1012600006D52868800339D560680028E7D035E0C6
:101270006068B0F5803F0BD010B1B0F5A02F11D051
:10128000286820F480302860286820F4802002E05C
:10129000286840F480302860606890B1FFF762FEF3
:1012A00006460AE0286840F480202860F0E700BF86
:1012B000FFF758FE801B642873D828688003F7D591
:1012C0000CE0FFF74FFE064605E000BFFFF74AFEC1
:1012D000801B6428F0D828688003F7D420789A4EC1
:1012E00080074FF001094FF0000839D5686810F009
:1012F0000C0F07D06868C0F38100022809D1686824
:10130000C00306D42868800714D52069012808D1B5
:1013100010E02069B0B1C6F80090FFF723FE074641
:1013200005E00AE1FFF71EFEC01B0228C4D82868AA
:101330008007F7D52868616920F0F80040EAC1000D
:1013400028600DE0C6F80080FFF70CFE074604E0B9
:10135000FFF708FEC01B022823D828688007F7D4AF
:10136000207800072CD57948A169D9B1C0F8009040
:10137000FFF7F8FD074604E0FFF7F4FDC01B022865
:101380000FD8686A8007F7D571484FF4FA510068A2
:10139000B0FBF1F0009000BF0098411E0091FAD21E
:1013A0000EE080E0C0F80080FFF7DCFD074604E0B7
:1013B000FFF7D8FDC01B022875D8686A8007F7D4EC
:1013C0002078400760D5E8690027C00008D4E869A4
:1013D00040F08050E861E869012700F080500090FB
:1013E0005C480168C90513D40168834641F48071E3
:1013F0000160FFF7B7FD824606E000BFFFF7B2FDD0
:10140000A0EB0A0064284ED8DBF80000C005F5D533
:10141000E06801280AD008B1052813D0286A20F016
:1014200001002862286A20F0040002E0286A40F0E7
:1014300001002862E06841F2883B98B1FFF792FD15
:1014400082460BE0286A40F004002862EEE700BF05
:10145000FFF788FDA0EB0A0159455AD8286A800792
:10146000F6D50CE0FFF77EFD824605E0FFF77AFD3A
:10147000A0EB0A0159454CD8286A8007F6D41FB161
:10148000E86920F08050E861E06988B36968C1F3D9
:101490008101022944D00228C6F8608004D0FFF7F9
:1014A00061FD044638E034E0FFF75CFD074604E0E8
:1014B000FFF758FDC01B02282BD828688001F7D4FD
:1014C000206AB0F5803F05D16868A16820F400303B
:1014D00008436860D4E908010843696821F474117D
:1014E00008436860C6F86090FFF73CFD044606E0DC
:1014F00025E000BFFFF736FD001B022809D8286849
:101500008001F7D51BE000BFFFF72CFD001B022870
:1015100002D90320BDE8F88F28688001F4D40EE0DA
:101520000128F7D06868226A00F48031914204D122
:10153000616A00F47010884201D00120EAE70020BF
:10154000E8E70000001002400000424280044242EE
:10155000440000200070004010B5401EB0F1807FB4
:1015600001D3012010BD4FF0E02460610F2160170E
:1015700000F0EFFC0020A06107202061002010BDDA
:1015800070B590F83C20012A19D0012400F83C4F96
:101590000222427050F83C3C5A689D6822F0700666
:1015A0000A684968324325F0800529435A6050F89B
:1015B0003C2C9160447000210170084670BD0220EF
:1015C00070BD10B5040003D094F83D0010B107E0E1
:1015D000012010BD002084F83C00204600F00CF8EB
:1015E000022084F83D00211D206800F089FB0120C5
:1015F00084F83D00002010BD08B50068B0F1804FB0
:1016000008D10548C16941F00101C161C06900F01C
:101610000100009008BD00000010024070B50446B3
:1016200090F83C00012817D0012584F83C50022096
:1016300084F83D002068826822F0770222F47F421D
:1016400082600868502830D00DDC20284DD005DCA1
:1016500098B310283BD148E0022070BD302844D018
:10166000402834D139E0602828D0702806D0B0F561
:10167000805F2CD0B0F5005F29D10AE0CB68D1E9BA
:101680000121206800F07FFB2068816841F077012C
:1016900009E0CB68D1E90121206800F074FB2068E3
:1016A000816841F48041816011E0CA68496820681E
:1016B00000F01EFC5021206807E016E0CA68496867
:1016C000206800F026FC6021206800F066FB84F8AA
:1016D0003D50002084F83C0070BDCA68496820680D
:1016E00000F006FC40212068EFE722680146104622
:1016F000EBE7000000B585B0002100910191029157
:1017000003910068B0F1804F11D10A48816941F01E
:10171000040181618069694600F00400049007209B
:1017200000900220019003900348FFF719FB05B0D9
:1017300000BD0000001002400008014070B50446E2
:1017400090F83C000D4601280DD0012684F83C603D
:10175000022084F83D0042B1042A18D0082A2AD079
:101760000C2A4DD139E0022070BD206800F01EFB2C
:101770002068816941F0080181612068816921F058
:1017800004018161206881692A69114311E02068A0
:1017900000F034FB2068816941F4006181612068B8
:1017A000816921F480618161206881692A6941EA47
:1017B0000221816124E0206800F04CFB2068C169AF
:1017C00041F00801C1612068C16921F00401C161D3
:1017D0002068C1692A69114311E0206800F066FBA6
:1017E0002068C16941F40061C1612068C16921F4C8
:1017F0008061C1612068C1692A6941EA0221C16131
:1018000084F83D60002084F83C0070BD10B50400F1
:1018100003D094F83D0010B107E0012010BD002076
:1018200084F83C00204600F00CF8022084F83D00CB
:10183000211D206800F064FA012084F83D0000209A
:1018400010BD704710B504460068012200F08EFA02
:1018500009492068884203D1416C41F40041416448
:101860002068816801F00701062903D0016841F072
:1018700001010160002010BD002C0140FEE70000C6
:1018800010B522488AB02049016050210024C0E9E7
:1018900001144FF08071C1604FF4402101614FF499
:1018A00080114161047644768476C4760477447767
:1018B000FFF7B2F8059406944FF48040CDE9000498
:1018C00007944FF4F03002904FF6FF70CDE9030417
:1018D000012008900E20099069460C48FEF7B2FEE0
:1018E0000A48FFF7E1F902210848FEF735FE0748EC
:1018F0004FF4E0616830C4608460016008210161D8
:1019000004750AB010BD00000064004048000020CB
:101910002DE9F04F85B000263A48009601960296D0
:101920000396816941F010018161816901F0100124
:101930000491816941F020018161816901F02001F8
:101940000491816941F004018161816901F0040120
:101950000491816941F0080181618069DFF8A890F4
:1019600000F008004FF4005404900022214648463D
:10197000FFF7F2FADFF894A04FF4806800224146A6
:101980005046FFF7E9FADFF888B04FF440770022BD
:1019900039465846FFF7E0FA0125CDE90045022413
:1019A0000294694648460394FFF7DAF9A0030090D1
:1019B0001848CDE9010469465846FFF7D1F9009768
:1019C000CDE9016469465046FFF7CAF9CDE90085C3
:1019D000CDE9025469465046FFF7C2F90097CDE9B8
:1019E0000154694658460394FFF7BAF9002211469C
:1019F0002820FFF723FB2820FFF712FB05B0BDE8E6
:101A0000F08F00000010024000100140000801406B
:101A1000000C01400000211010B58EB00024079486
:101A2000089409940A940B941C2168460C94FEF7C0
:101A300080FB1B484FF0804101601021C0E9011478
:101A40000901C0E903148461FFF7BBFD4FF4805026
:101A5000079007A91248FFF7E1FD1148FFF7D6FEEE
:101A60000B940BA90E480C94FFF78AFD6020CDE97A
:101A7000000402940022694609480494FFF75EFEC0
:101A8000042269460648FFF759FE082269460448C1
:101A9000FFF754FE0248FFF72DFE0EB010BD000008
:101AA00070000020FEE700002DE9F0473E4CD4E92D
:101AB0000310884272D000224FF480613B48FFF748
:101AC0004BFAE2682069DFF8E8908242E2684FF45E
:101AD000807103D2801A2062227802E0101A2062FC
:101AE00062784846FFF738FA324E706800254FF4A6
:101AF0000078B0F57A7F08D9A078012805D10022B6
:101B000041464846FFF728FAA570D4E908010127A5
:101B1000B1EB500F18D27068A169884214D9012224
:101B200041464846FFF718FA7560A770606A401C86
:101B300060626169E2885143E26900FB0020B1FB09
:101B4000F0F061690844A061D4E90801B1EB500FDD
:101B50001AD37068A169884216D9012241464846C5
:101B6000FFF7FAF97560A770606A401C6062216A2D
:101B7000081AE16900FB00116069E2885043B0FB7C
:101B8000F1F061690844A061D4E90801814208D1FB
:101B9000E068256265622061A570A5610020BDE84E
:101BA000F0870120FBE70000000000200008014052
:101BB000000C0140001000E0704770472DE9F84329
:101BC000264CA088264D00074FF0000640F2037710
:101BD0004FF004081FD5E168206981421BD1010E36
:101BE00000968DF80010010C8DF80110010A8DF897
:101BF00002108DF803002F60C5E90368294604F13F
:101C000028036A46A1F16800FEF7B8FC18B9A0885D
:101C100020F00800A080A088C0061DD5009620698D
:101C20000E4B010E8DF80010010C8DF80110010A09
:101C30008DF802108DF803002F60C5E9036808498C
:101C400028336A46A1F16800FEF798FC002803D10A
:101C5000A08820F01000A080BDE8F88300000020DC
:101C6000B00000207047FFF783B930B58FB028214E
:101C70006846FEF75EFA14210AA8FEF75AFA012117
:101C80000804CDE900100024029402250491CDE956
:101C900007504FF4C01009906846FFF7CDFA0F20A7
:101CA000CDE90A056802CDE90C4002210AA80E948C
:101CB000FFF7F6F90FB030BD0D48016841F00101A2
:101CC000016041680B4A1140416001680A4A1140B5
:101CD0000160016821F480210160416821F4FE0166
:101CE00041604FF41F0181600449C00308607047E0
:101CF000001002400000FFF8FFFFF6FE08ED00E0D4
:101D0000F0B50268164B174C174D4FF080479842BC
:101D100005D0B84203D0A04201D0A84203D122F09E
:101D200070064A683243984205D0B84203D0A042B8
:101D300001D0A84203D122F44074CA6822434C69FE
:101D400022F08002224302608A68C2620A688262CC
:101D5000984201D10969016301214161F0BD000090
:101D6000002C0140000400400008004010B501F0C4
:101D70001F030121046A99408C430462016A9A405E
:101D80001143016210BD10B5846842EA032224F4B5
:101D90007F440A432243826010BD826822F07002B1
:101DA0000A4342F0070181607047000030B5026AC3
:101DB00022F001020262026A4368846924F073051A
:101DC0000C682C4322F002058A682A430A4DA84277
:101DD0000BD122F00805CA6823F440732A434D69E9
:101DE00022F004021D438B692B43436084614968E0
:101DF0004163026230BD0000002C014030B5026A30
:101E000022F010020262026A436884690D6824F4B9
:101E1000E64444EA05248D6822F0200242EA0512D5
:101E20000B4DA8420ED1CD6822F0800242EA051285
:101E30004D6923F4406343EA85038D6922F0400233
:101E400043EA85034360846149688163026230BD6F
:101E5000002C014030B5026A22F480720262036AEB
:101E60004268C46923F4007324F073050C682C43A2
:101E70008D6843EA05230C4DA8420ED1CD6823F4AA
:101E8000006343EA05234D6922F4405242EA0512F9
:101E90008D6923F4806342EA05124260C461496897
:101EA000C163036230BD0000002C014030B5026AFE
:101EB00022F480520262046A4268C3690D6823F406
:101EC000E64343EA05238D6824F4005444EA0534CC
:101ED000064DA84204D14D6922F4804242EA85129F
:101EE0004260C36149680164046230BD002C014056
:101EF00010B5036A046A24F001040462846924F0C2
:101F0000F00444EA021423F00A020A4384610262E4
:101F100010BD10B5036A23F0100303628369046ADD
:101F200023F4704343EA023224F0A00343EA011190
:101F30008261016210BD00000148FEF76FBC000025
:101F4000480000200148FEF769BC0000480000205E
:101F5000FEE70907090E002804DB00F1E02080F805
:101F60000014704700F00F0000F1E02080F8141D0D
:101F7000704702E008C8121F08C1002AFAD1704752
:101F80007047002001E001C1121F002AFBD17047F9
:101F90002048016841F0807101601F48016841F0EC
:101FA0000101016000244460FEF7EAFFFFF75DFED7
:101FB000FFF7AEFCFFF764FCFFF72EFD174DEC605A
:101FC0004FF47A70FEF7ACFE6C14EC6000211448FC
:101FD000FFF738FC04211248FFF734FC08211048B1
:101FE000FFF730FCFF20610448638863C8630D4E2F
:101FF000FFF7E4FDFFF758FDFEF7C6F8B0880006CE
:10200000F6D56420FEF78CFE21462846FEF79DFF9C
:10201000F7E70000FCED00E0001000E000100140D8
:102020007000002000000020000000000000000000
:1020300001020304060708095820000800000020D8
:1020400048000000721F0008A0200008480000207F
:10205000A0040000821F00080001000000001027FB
:1020600000000000000000000000000030750000CB
:102070000000000058020000000000000000000006
:102080000000000000000000000000000000000050
:102090000100000010000000000000000024F40017
:04000005080000ED02
:00000001FF
